{
  "contractName": "Array1",
  "abi": [
    {
      "inputs": [
        {
          "internalType": "uint256",
          "name": "",
          "type": "uint256"
        }
      ],
      "name": "arr",
      "outputs": [
        {
          "internalType": "uint256",
          "name": "",
          "type": "uint256"
        }
      ],
      "stateMutability": "view",
      "type": "function",
      "constant": true
    },
    {
      "inputs": [],
      "name": "myarray",
      "outputs": [
        {
          "internalType": "uint256[]",
          "name": "",
          "type": "uint256[]"
        }
      ],
      "stateMutability": "view",
      "type": "function",
      "constant": true
    }
  ],
  "bytecode": "0x60806040526040518060800160405280600160ff168152602001600260ff168152602001600360ff168152602001600460ff168152506000906004610045929190610058565b5034801561005257600080fd5b506100c7565b828054828255906000526020600020908101928215610099579160200282015b82811115610098578251829060ff16905591602001919060010190610078565b5b5090506100a691906100aa565b5090565b5b808211156100c35760008160009055506001016100ab565b5090565b6102a4806100d66000396000f3fe608060405234801561001057600080fd5b50600436106100365760003560e01c806371e5ee5f1461003b578063fa22576d1461006b575b600080fd5b6100556004803603810190610050919061011a565b610089565b60405161006291906101f9565b60405180910390f35b6100736100ad565b60405161008091906101d7565b60405180910390f35b6000818154811061009957600080fd5b906000526020600020016000915090505481565b606060008054806020026020016040519081016040528092919081815260200182805480156100fb57602002820191906000526020600020905b8154815260200190600101908083116100e7575b5050505050905090565b60008135905061011481610257565b92915050565b60006020828403121561012c57600080fd5b600061013a84828501610105565b91505092915050565b600061014f83836101b9565b60208301905092915050565b600061016682610224565b610170818561023c565b935061017b83610214565b8060005b838110156101ac5781516101938882610143565b975061019e8361022f565b92505060018101905061017f565b5085935050505092915050565b6101c28161024d565b82525050565b6101d18161024d565b82525050565b600060208201905081810360008301526101f1818461015b565b905092915050565b600060208201905061020e60008301846101c8565b92915050565b6000819050602082019050919050565b600081519050919050565b6000602082019050919050565b600082825260208201905092915050565b6000819050919050565b6102608161024d565b811461026b57600080fd5b5056fea26469706673582212200a32deac6de047f867063e14e4a165a0160d47b32c59399756160a05ca11e6f564736f6c63430008000033",
  "immutableReferences": {},
  "source": "// SPDX-License-Identifier: GPL-3.0\npragma solidity >=0.6.0<0.9.0;\ncontract Array1{\n    uint[] public arr=[1,2,3,4];\n    function myarray() public view returns(uint[] memory ){\n        return arr;\n    } \n}",
  "sourcePath": "/home/ankitkumar/Desktop/ETHEREUM/Ether/contracts/Array1.sol",
  "compiler": {
    "name": "solc",
    "version": "0.8.0+commit.c7dfd78e.Emscripten.clang"
  },
  "schemaVersion": "3.4.4",
  "updatedAt": "2022-04-15T06:00:42.249Z",
  "networkType": "ethereum",
  "devdoc": {
    "kind": "dev",
    "methods": {},
    "version": 1
  },
  "userdoc": {
    "kind": "user",
    "methods": {},
    "version": 1
  }
}