{
  "contractName": "B",
  "abi": [
    {
      "inputs": [],
      "name": "bx",
      "outputs": [
        {
          "internalType": "uint256",
          "name": "",
          "type": "uint256"
        }
      ],
      "stateMutability": "view",
      "type": "function",
      "constant": true
    },
    {
      "inputs": [],
      "name": "cx",
      "outputs": [
        {
          "internalType": "uint256",
          "name": "",
          "type": "uint256"
        }
      ],
      "stateMutability": "view",
      "type": "function",
      "constant": true
    },
    {
      "inputs": [],
      "name": "f1",
      "outputs": [
        {
          "internalType": "uint256",
          "name": "",
          "type": "uint256"
        }
      ],
      "stateMutability": "pure",
      "type": "function",
      "constant": true
    },
    {
      "inputs": [],
      "name": "f4",
      "outputs": [
        {
          "internalType": "uint256",
          "name": "",
          "type": "uint256"
        }
      ],
      "stateMutability": "pure",
      "type": "function",
      "constant": true
    }
  ],
  "bytecode": "0x608060405261001261003860201b60201c565b60005561002361004160201b60201c565b60015534801561003257600080fd5b5061004a565b60006003905090565b60006001905090565b610151806100596000396000f3fe608060405234801561001057600080fd5b506004361061004c5760003560e01c806321e6e6401461005157806390be565e1461006f578063c27fc3051461008d578063c3f90202146100ab575b600080fd5b6100596100c9565b60405161006691906100f6565b60405180910390f35b6100776100cf565b60405161008491906100f6565b60405180910390f35b6100956100d5565b6040516100a291906100f6565b60405180910390f35b6100b36100de565b6040516100c091906100f6565b60405180910390f35b60015481565b60005481565b60006001905090565b60006004905090565b6100f081610111565b82525050565b600060208201905061010b60008301846100e7565b92915050565b600081905091905056fea2646970667358221220964ead8412ec2b9b79be8916b463b2f09a3f17ca378160067a982d604e34792264736f6c63430008000033",
  "immutableReferences": {},
  "source": "// SPDX-License-Identifier: GPL-3.0\npragma solidity >=0.6.0<0.9.0;\ncontract A{\n    function f1() public pure returns(uint){\n        return 1;\n    }\n    function f2() private pure returns(uint){\n        return 2;\n    }\n    function f3() internal pure returns(uint){\n        return 3;\n        \n    }\n    function f4() external pure returns(uint){\n        return 4;\n    }\n    \n}\ncontract B is A{\n    uint public bx=f3();\n    uint public cx=f1();\n}\ncontract C{\n    A obj = new A();\n    uint public cx=obj.f4();\n}",
  "sourcePath": "/home/ankitkumar/Desktop/ETHEREUM/Ether/contracts/A.sol",
  "compiler": {
    "name": "solc",
    "version": "0.8.0+commit.c7dfd78e.Emscripten.clang"
  },
  "schemaVersion": "3.4.4",
  "updatedAt": "2022-04-15T06:00:40.350Z",
  "networkType": "ethereum",
  "devdoc": {
    "kind": "dev",
    "methods": {},
    "version": 1
  },
  "userdoc": {
    "kind": "user",
    "methods": {},
    "version": 1
  }
}