{
  "contractName": "Bytes1",
  "abi": [
    {
      "inputs": [],
      "name": "b1",
      "outputs": [
        {
          "internalType": "bytes",
          "name": "",
          "type": "bytes"
        }
      ],
      "stateMutability": "view",
      "type": "function",
      "constant": true
    },
    {
      "inputs": [],
      "name": "pushElent",
      "outputs": [],
      "stateMutability": "nonpayable",
      "type": "function"
    }
  ],
  "bytecode": "0x60806040526040518060400160405280600381526020017f61626300000000000000000000000000000000000000000000000000000000008152506000908051906020019061004f929190610062565b5034801561005c57600080fd5b50610166565b82805461006e90610105565b90600052602060002090601f01602090048101928261009057600085556100d7565b82601f106100a957805160ff19168380011785556100d7565b828001600101855582156100d7579182015b828111156100d65782518255916020019190600101906100bb565b5b5090506100e491906100e8565b5090565b5b808211156101015760008160009055506001016100e9565b5090565b6000600282049050600182168061011d57607f821691505b6020821081141561013157610130610137565b5b50919050565b7f4e487b7100000000000000000000000000000000000000000000000000000000600052602260045260246000fd5b610307806101756000396000f3fe608060405234801561001057600080fd5b50600436106100365760003560e01c8063ee4950021461003b578063f68a720414610059575b600080fd5b610043610063565b60405161005091906101ee565b60405180910390f35b6100616100f1565b005b600080546100709061025f565b80601f016020809104026020016040519081016040528092919081815260200182805461009c9061025f565b80156100e95780601f106100be576101008083540402835291602001916100e9565b820191906000526020600020905b8154815290600101906020018083116100cc57829003601f168201915b505050505081565b6000808054806101009061025f565b80601f811461010e57610124565b83600052602060002060ff1984168155603f9350505b506002820183556001810192505050600190038154600116156101565790600052602060002090602091828204019190065b7f640000000000000000000000000000000000000000000000000000000000000090919091601f036101000a81548160ff021916907f010000000000000000000000000000000000000000000000000000000000000084040217905550565b60006101c082610210565b6101ca818561021b565b93506101da81856020860161022c565b6101e3816102c0565b840191505092915050565b6000602082019050818103600083015261020881846101b5565b905092915050565b600081519050919050565b600082825260208201905092915050565b60005b8381101561024a57808201518184015260208101905061022f565b83811115610259576000848401525b50505050565b6000600282049050600182168061027757607f821691505b6020821081141561028b5761028a610291565b5b50919050565b7f4e487b7100000000000000000000000000000000000000000000000000000000600052602260045260246000fd5b6000601f19601f830116905091905056fea26469706673582212205e8cd2904839c559fbce09694d4d30c00ae15817c2ed4ae4e74acbcb3cf4aba264736f6c63430008000033",
  "immutableReferences": {},
  "source": "// SPDX-License-Identifier: GPL-3.0\npragma solidity >=0.6.0<0.9.0;\ncontract Bytes1{\n    bytes public b1=\"abc\";\n    function pushElent() public{\n        b1.push('d');\n    }\n}",
  "sourcePath": "/home/ankitkumar/Desktop/ETHEREUM/Ether/contracts/Byets1.sol",
  "compiler": {
    "name": "solc",
    "version": "0.8.0+commit.c7dfd78e.Emscripten.clang"
  },
  "schemaVersion": "3.4.4",
  "updatedAt": "2022-04-15T06:00:39.330Z",
  "networkType": "ethereum",
  "devdoc": {
    "kind": "dev",
    "methods": {},
    "version": 1
  },
  "userdoc": {
    "kind": "user",
    "methods": {},
    "version": 1
  }
}