{
  "contractName": "Bytes2",
  "abi": [
    {
      "inputs": [],
      "name": "b1",
      "outputs": [
        {
          "internalType": "bytes",
          "name": "",
          "type": "bytes"
        }
      ],
      "stateMutability": "view",
      "type": "function",
      "constant": true
    },
    {
      "inputs": [],
      "name": "pushElent",
      "outputs": [],
      "stateMutability": "nonpayable",
      "type": "function"
    },
    {
      "inputs": [
        {
          "internalType": "uint256",
          "name": "i",
          "type": "uint256"
        }
      ],
      "name": "getElement",
      "outputs": [
        {
          "internalType": "bytes1",
          "name": "",
          "type": "bytes1"
        }
      ],
      "stateMutability": "view",
      "type": "function",
      "constant": true
    },
    {
      "inputs": [],
      "name": "getLength",
      "outputs": [
        {
          "internalType": "uint256",
          "name": "",
          "type": "uint256"
        }
      ],
      "stateMutability": "view",
      "type": "function",
      "constant": true
    }
  ],
  "bytecode": "0x60806040526040518060400160405280600381526020017f61626300000000000000000000000000000000000000000000000000000000008152506000908051906020019061004f929190610062565b5034801561005c57600080fd5b50610166565b82805461006e90610105565b90600052602060002090601f01602090048101928261009057600085556100d7565b82601f106100a957805160ff19168380011785556100d7565b828001600101855582156100d7579182015b828111156100d65782518255916020019190600101906100bb565b5b5090506100e491906100e8565b5090565b5b808211156101015760008160009055506001016100e9565b5090565b6000600282049050600182168061011d57607f821691505b6020821081141561013157610130610137565b5b50919050565b7f4e487b7100000000000000000000000000000000000000000000000000000000600052602260045260246000fd5b6104ef806101756000396000f3fe608060405234801561001057600080fd5b506004361061004c5760003560e01c80633a7d22bc14610051578063be1c766b14610081578063ee4950021461009f578063f68a7204146100bd575b600080fd5b61006b600480360381019061006691906102d3565b6100c7565b6040516100789190610353565b60405180910390f35b610089610157565b6040516100969190610390565b60405180910390f35b6100a761016c565b6040516100b4919061036e565b60405180910390f35b6100c56101fa565b005b6000808281546100d690610430565b811061010b577f4e487b7100000000000000000000000000000000000000000000000000000000600052603260045260246000fd5b81546001161561012a5790600052602060002090602091828204019190065b9054901a7f0100000000000000000000000000000000000000000000000000000000000000029050919050565b600080805461016590610430565b9050905090565b6000805461017990610430565b80601f01602080910402602001604051908101604052809291908181526020018280546101a590610430565b80156101f25780601f106101c7576101008083540402835291602001916101f2565b820191906000526020600020905b8154815290600101906020018083116101d557829003601f168201915b505050505081565b60008080548061020990610430565b80601f81146102175761022d565b83600052602060002060ff1984168155603f9350505b5060028201835560018101925050506001900381546001161561025f5790600052602060002090602091828204019190065b7f640000000000000000000000000000000000000000000000000000000000000090919091601f036101000a81548160ff021916907f010000000000000000000000000000000000000000000000000000000000000084040217905550565b6000813590506102cd816104a2565b92915050565b6000602082840312156102e557600080fd5b60006102f3848285016102be565b91505092915050565b610305816103c7565b82525050565b6000610316826103ab565b61032081856103b6565b93506103308185602086016103fd565b61033981610491565b840191505092915050565b61034d816103f3565b82525050565b600060208201905061036860008301846102fc565b92915050565b60006020820190508181036000830152610388818461030b565b905092915050565b60006020820190506103a56000830184610344565b92915050565b600081519050919050565b600082825260208201905092915050565b60007fff0000000000000000000000000000000000000000000000000000000000000082169050919050565b6000819050919050565b60005b8381101561041b578082015181840152602081019050610400565b8381111561042a576000848401525b50505050565b6000600282049050600182168061044857607f821691505b6020821081141561045c5761045b610462565b5b50919050565b7f4e487b7100000000000000000000000000000000000000000000000000000000600052602260045260246000fd5b6000601f19601f8301169050919050565b6104ab816103f3565b81146104b657600080fd5b5056fea2646970667358221220772c5fc97bd57234564859c2acba7f7bc1960b20832752879e0b29f9ed69ca7f64736f6c63430008000033",
  "immutableReferences": {},
  "source": "// SPDX-License-Identifier: GPL-3.0\npragma solidity >=0.6.0<0.9.0;\ncontract Bytes2{\n    bytes public b1=\"abc\";\n    function pushElent() public{\n        b1.push('d');\n    }\n    function getElement(uint i) public view returns(bytes1){\n        return b1[i];\n    }\n    function getLength() public view returns(uint){\n        return b1.length;\n    }\n }",
  "sourcePath": "/home/ankitkumar/Desktop/ETHEREUM/Ether/contracts/Bytes2.sol",
  "compiler": {
    "name": "solc",
    "version": "0.8.0+commit.c7dfd78e.Emscripten.clang"
  },
  "schemaVersion": "3.4.4",
  "updatedAt": "2022-04-15T06:00:39.672Z",
  "networkType": "ethereum",
  "devdoc": {
    "kind": "dev",
    "methods": {},
    "version": 1
  },
  "userdoc": {
    "kind": "user",
    "methods": {},
    "version": 1
  }
}