{
  "contractName": "Bytes",
  "abi": [
    {
      "inputs": [],
      "name": "b2",
      "outputs": [
        {
          "internalType": "bytes2",
          "name": "",
          "type": "bytes2"
        }
      ],
      "stateMutability": "view",
      "type": "function",
      "constant": true
    },
    {
      "inputs": [],
      "name": "b3",
      "outputs": [
        {
          "internalType": "bytes3",
          "name": "",
          "type": "bytes3"
        }
      ],
      "stateMutability": "view",
      "type": "function",
      "constant": true
    },
    {
      "inputs": [],
      "name": "setter",
      "outputs": [],
      "stateMutability": "nonpayable",
      "type": "function"
    }
  ],
  "bytecode": "0x608060405234801561001057600080fd5b5061020c806100206000396000f3fe608060405234801561001057600080fd5b50600436106100415760003560e01c80630add6ef2146100465780633f3108f714610064578063e9b619091461006e575b600080fd5b61004e61008c565b60405161005b9190610148565b60405180910390f35b61006c61009f565b005b610076610119565b6040516100839190610163565b60405180910390f35b600060039054906101000a900460f01b81565b7f61626300000000000000000000000000000000000000000000000000000000006000806101000a81548162ffffff021916908360e81c02179055507f6100000000000000000000000000000000000000000000000000000000000000600060036101000a81548161ffff021916908360f01c0217905550565b60008054906101000a900460e81b81565b6101338161017e565b82525050565b610142816101aa565b82525050565b600060208201905061015d600083018461012a565b92915050565b60006020820190506101786000830184610139565b92915050565b60007fffff00000000000000000000000000000000000000000000000000000000000082169050919050565b60007fffffff00000000000000000000000000000000000000000000000000000000008216905091905056fea2646970667358221220ec9b3f5a8b184e7aeaf081d9ae04a11a489941443cd309d9ef2e00d646e143e464736f6c63430008000033",
  "immutableReferences": {},
  "source": "// SPDX-License-Identifier: GPL-3.0\npragma solidity >=0.6.0<0.9.0;\ncontract Bytes{\n    bytes3 public b3;\n    bytes2 public b2;\n    function setter() public{\n        b3=\"abc\";\n        b2=\"a\";\n    }\n}",
  "sourcePath": "/home/ankitkumar/Desktop/ETHEREUM/Ether/contracts/Bytes.sol",
  "compiler": {
    "name": "solc",
    "version": "0.8.0+commit.c7dfd78e.Emscripten.clang"
  },
  "schemaVersion": "3.4.4",
  "updatedAt": "2022-04-15T06:00:38.990Z",
  "networkType": "ethereum",
  "devdoc": {
    "kind": "dev",
    "methods": {},
    "version": 1
  },
  "userdoc": {
    "kind": "user",
    "methods": {},
    "version": 1
  }
}