{
  "contractName": "Complex",
  "abi": [
    {
      "inputs": [
        {
          "internalType": "uint256",
          "name": "",
          "type": "uint256"
        },
        {
          "internalType": "bool",
          "name": "",
          "type": "bool"
        },
        {
          "internalType": "uint256",
          "name": "",
          "type": "uint256"
        }
      ],
      "name": "data",
      "outputs": [
        {
          "internalType": "uint256",
          "name": "a",
          "type": "uint256"
        },
        {
          "internalType": "bytes3",
          "name": "b",
          "type": "bytes3"
        },
        {
          "internalType": "bytes",
          "name": "e",
          "type": "bytes"
        }
      ],
      "stateMutability": "view",
      "type": "function",
      "constant": true
    },
    {
      "inputs": [
        {
          "internalType": "uint256",
          "name": "arg1",
          "type": "uint256"
        },
        {
          "internalType": "bool",
          "name": "arg2",
          "type": "bool"
        },
        {
          "internalType": "uint256",
          "name": "arg3",
          "type": "uint256"
        }
      ],
      "name": "f",
      "outputs": [
        {
          "internalType": "uint256",
          "name": "a",
          "type": "uint256"
        },
        {
          "internalType": "bytes3",
          "name": "b",
          "type": "bytes3"
        },
        {
          "internalType": "bytes",
          "name": "e",
          "type": "bytes"
        }
      ],
      "stateMutability": "view",
      "type": "function",
      "constant": true
    }
  ],
  "bytecode": "0x608060405234801561001057600080fd5b506105f9806100206000396000f3fe608060405234801561001057600080fd5b50600436106100365760003560e01c8063690962231461003b578063e425e0a51461006d575b600080fd5b610055600480360381019061005091906103ae565b61009f565b60405161006493929190610454565b60405180910390f35b610087600480360381019061008291906103ae565b610188565b60405161009693929190610454565b60405180910390f35b600060205282600052604060002060205281600052604060002081815481106100c757600080fd5b906000526020600020906008020160009250925050508060000154908060010160009054906101000a900460e81b9080600701805461010590610523565b80601f016020809104026020016040519081016040528092919081815260200182805461013190610523565b801561017e5780601f106101535761010080835404028352916020019161017e565b820191906000526020600020905b81548152906001019060200180831161016157829003601f168201915b5050505050905083565b600080606060008087815260200190815260200160002060008615151515815260200190815260200160002084815481106101ec577f4e487b7100000000000000000000000000000000000000000000000000000000600052603260045260246000fd5b9060005260206000209060080201600001549250600080878152602001908152602001600020600086151515158152602001908152602001600020848154811061025f577f4e487b7100000000000000000000000000000000000000000000000000000000600052603260045260246000fd5b906000526020600020906008020160010160009054906101000a900460e81b915060008087815260200190815260200160002060008615151515815260200190815260200160002084815481106102df577f4e487b7100000000000000000000000000000000000000000000000000000000600052603260045260246000fd5b906000526020600020906008020160070180546102fb90610523565b80601f016020809104026020016040519081016040528092919081815260200182805461032790610523565b80156103745780601f1061034957610100808354040283529160200191610374565b820191906000526020600020905b81548152906001019060200180831161035757829003601f168201915b5050505050905093509350939050565b60008135905061039381610595565b92915050565b6000813590506103a8816105ac565b92915050565b6000806000606084860312156103c357600080fd5b60006103d186828701610399565b93505060206103e286828701610384565b92505060406103f386828701610399565b9150509250925092565b610406816104ba565b82525050565b600061041782610492565b610421818561049d565b93506104318185602086016104f0565b61043a81610584565b840191505092915050565b61044e816104e6565b82525050565b60006060820190506104696000830186610445565b61047660208301856103fd565b8181036040830152610488818461040c565b9050949350505050565b600081519050919050565b600082825260208201905092915050565b60008115159050919050565b60007fffffff000000000000000000000000000000000000000000000000000000000082169050919050565b6000819050919050565b60005b8381101561050e5780820151818401526020810190506104f3565b8381111561051d576000848401525b50505050565b6000600282049050600182168061053b57607f821691505b6020821081141561054f5761054e610555565b5b50919050565b7f4e487b7100000000000000000000000000000000000000000000000000000000600052602260045260246000fd5b6000601f19601f8301169050919050565b61059e816104ae565b81146105a957600080fd5b50565b6105b5816104e6565b81146105c057600080fd5b5056fea26469706673582212205f3ee4fa2b5fad19be1d1c70263d375f230b585f6ca8e17e852aa2ccb15ff43564736f6c63430008000033",
  "immutableReferences": {},
  "source": "// SPDX-License-Identifier: GPL-3.0\npragma solidity >=0.6.0<0.9.0;\ncontract Complex{\n    struct Data{\n        uint a;\n        bytes3 b;\n        mapping(uint=>uint) map;\n        uint[3] c;\n        uint[] d;\n        bytes e;\n    }\n    mapping(uint=>mapping(bool=>Data[])) public data;\n    function f(uint arg1,bool arg2,uint arg3) public view returns(uint a, bytes3 b, bytes memory e){\n        a=data[arg1][arg2][arg3].a;\n        b=data[arg1][arg2][arg3].b;\n        e=data[arg1][arg2][arg3].e;\n    }\n}",
  "sourcePath": "/home/ankitkumar/Desktop/ETHEREUM/Ether/contracts/Complex.sol",
  "compiler": {
    "name": "solc",
    "version": "0.8.0+commit.c7dfd78e.Emscripten.clang"
  },
  "schemaVersion": "3.4.4",
  "updatedAt": "2022-04-15T06:00:42.558Z",
  "networkType": "ethereum",
  "devdoc": {
    "kind": "dev",
    "methods": {},
    "version": 1
  },
  "userdoc": {
    "kind": "user",
    "methods": {},
    "version": 1
  }
}