{
  "contractName": "Const_Immutable",
  "abi": [
    {
      "inputs": [
        {
          "internalType": "uint256",
          "name": "_decimal",
          "type": "uint256"
        },
        {
          "internalType": "address",
          "name": "_reference",
          "type": "address"
        }
      ],
      "stateMutability": "nonpayable",
      "type": "constructor"
    },
    {
      "inputs": [
        {
          "internalType": "address",
          "name": "_other",
          "type": "address"
        }
      ],
      "name": "isBalanceToHigh",
      "outputs": [
        {
          "internalType": "bool",
          "name": "",
          "type": "bool"
        }
      ],
      "stateMutability": "view",
      "type": "function",
      "constant": true
    }
  ],
  "bytecode": "0x60e06040523373ffffffffffffffffffffffffffffffffffffffff1660c09073ffffffffffffffffffffffffffffffffffffffff1660601b81525034801561004657600080fd5b50604051610328380380610328833981810160405281019061006891906100c0565b81608081815250508073ffffffffffffffffffffffffffffffffffffffff163160a081815250505050610166565b6000815190506100a581610138565b92915050565b6000815190506100ba8161014f565b92915050565b600080604083850312156100d357600080fd5b60006100e1858286016100ab565b92505060206100f285828601610096565b9150509250929050565b60006101078261010e565b9050919050565b600073ffffffffffffffffffffffffffffffffffffffff82169050919050565b6000819050919050565b610141816100fc565b811461014c57600080fd5b50565b6101588161012e565b811461016357600080fd5b50565b60805160a05160c05160601c610197610191600039600050506000607c0152600050506101976000f3fe608060405234801561001057600080fd5b506004361061002b5760003560e01c806393d5976414610030575b600080fd5b61004a600480360381019061004591906100b9565b610060565b60405161005791906100f1565b60405180910390f35b60008173ffffffffffffffffffffffffffffffffffffffff16317f000000000000000000000000000000000000000000000000000000000000000010159050919050565b6000813590506100b38161014a565b92915050565b6000602082840312156100cb57600080fd5b60006100d9848285016100a4565b91505092915050565b6100eb8161011e565b82525050565b600060208201905061010660008301846100e2565b92915050565b60006101178261012a565b9050919050565b60008115159050919050565b600073ffffffffffffffffffffffffffffffffffffffff82169050919050565b6101538161010c565b811461015e57600080fd5b5056fea2646970667358221220a91d50fd27e90f2e8c1fb8ae8ab2335279003419df688b49327aa9ff0101500064736f6c63430008000033",
  "immutableReferences": {
    "13": [
      {
        "length": 32,
        "start": 124
      }
    ]
  },
  "source": "// SPDX-License-Identifier: GPL-3.0\npragma solidity >=0.6.0<0.9.0;\ncontract Const_Immutable{\n   string constant Str=\"abc\";\n   bytes32 constant Myhash=keccak256(\"abc\");\n   uint immutable decimal;\n   uint immutable maxbalance;\n   address immutable owner=msg.sender;\n   constructor(uint _decimal,address _reference){\n       decimal=_decimal;\n       maxbalance=_reference.balance;\n   }\n   function isBalanceToHigh(address _other) public view returns(bool){\n       return maxbalance>=_other.balance;\n   }\n}",
  "sourcePath": "/home/ankitkumar/Desktop/ETHEREUM/Ether/contracts/Const_Immutable.sol",
  "compiler": {
    "name": "solc",
    "version": "0.8.0+commit.c7dfd78e.Emscripten.clang"
  },
  "schemaVersion": "3.4.4",
  "updatedAt": "2022-04-15T06:00:43.140Z",
  "networkType": "ethereum",
  "devdoc": {
    "kind": "dev",
    "methods": {},
    "version": 1
  },
  "userdoc": {
    "kind": "user",
    "methods": {},
    "version": 1
  }
}