{
  "contractName": "function_Overloading",
  "abi": [
    {
      "inputs": [
        {
          "internalType": "uint256",
          "name": "_i",
          "type": "uint256"
        },
        {
          "internalType": "bool",
          "name": "_b1",
          "type": "bool"
        }
      ],
      "name": "f",
      "outputs": [
        {
          "internalType": "uint256",
          "name": "_out",
          "type": "uint256"
        }
      ],
      "stateMutability": "pure",
      "type": "function",
      "constant": true
    },
    {
      "inputs": [
        {
          "internalType": "uint256",
          "name": "_i",
          "type": "uint256"
        }
      ],
      "name": "f",
      "outputs": [
        {
          "internalType": "uint256",
          "name": "_out",
          "type": "uint256"
        }
      ],
      "stateMutability": "pure",
      "type": "function",
      "constant": true
    }
  ],
  "bytecode": "0x608060405234801561001057600080fd5b506101ea806100206000396000f3fe608060405234801561001057600080fd5b50600436106100365760003560e01c80632735acb71461003b578063b3de648b1461006b575b600080fd5b6100556004803603810190610050919061010a565b61009b565b6040516100629190610155565b60405180910390f35b610085600480360381019061008091906100e1565b6100ad565b6040516100929190610155565b60405180910390f35b600081156100a7578290505b92915050565b6000819050919050565b6000813590506100c681610186565b92915050565b6000813590506100db8161019d565b92915050565b6000602082840312156100f357600080fd5b6000610101848285016100cc565b91505092915050565b6000806040838503121561011d57600080fd5b600061012b858286016100cc565b925050602061013c858286016100b7565b9150509250929050565b61014f8161017c565b82525050565b600060208201905061016a6000830184610146565b92915050565b60008115159050919050565b6000819050919050565b61018f81610170565b811461019a57600080fd5b50565b6101a68161017c565b81146101b157600080fd5b5056fea2646970667358221220c1732d025cbd2ce7085347d1f803882f1915a48bf7b2c4d2cc86da847640d76064736f6c63430008000033",
  "immutableReferences": {},
  "source": "// SPDX-License-Identifier: GPL-3.0\npragma solidity >=0.6.0<0.9.0;\ncontract function_Overloading{\n    function f(uint _i) public pure returns(uint _out){\n       _out=_i;\n    }\n    function f(uint _i,bool _b1) public pure returns(uint _out){\n        if(_b1)\n        _out=_i;\n    }\n}",
  "sourcePath": "/home/ankitkumar/Desktop/ETHEREUM/Ether/contracts/Function_Overloading.sol",
  "compiler": {
    "name": "solc",
    "version": "0.8.0+commit.c7dfd78e.Emscripten.clang"
  },
  "schemaVersion": "3.4.4",
  "updatedAt": "2022-04-15T06:00:44.294Z",
  "networkType": "ethereum",
  "devdoc": {
    "kind": "dev",
    "methods": {},
    "version": 1
  },
  "userdoc": {
    "kind": "user",
    "methods": {},
    "version": 1
  }
}