{
  "contractName": "function1",
  "abi": [
    {
      "inputs": [
        {
          "internalType": "address",
          "name": "_addressB",
          "type": "address"
        }
      ],
      "name": "setAddress",
      "outputs": [],
      "stateMutability": "nonpayable",
      "type": "function"
    },
    {
      "inputs": [],
      "name": "callhelloworld",
      "outputs": [
        {
          "internalType": "string",
          "name": "",
          "type": "string"
        }
      ],
      "stateMutability": "view",
      "type": "function"
    }
  ],
  "bytecode": "0x608060405234801561001057600080fd5b5061041a806100206000396000f3fe608060405234801561001057600080fd5b50600436106100365760003560e01c8063a66cfc721461003b578063e30081a014610059575b600080fd5b610043610075565b6040516100509190610289565b60405180910390f35b610073600480360381019061006e91906101e6565b610126565b005b606060008060009054906101000a900473ffffffffffffffffffffffffffffffffffffffff1690508073ffffffffffffffffffffffffffffffffffffffff16632f2f48596040518163ffffffff1660e01b815260040160006040518083038186803b1580156100e357600080fd5b505afa1580156100f7573d6000803e3d6000fd5b505050506040513d6000823e3d601f19601f82011682018060405250810190610120919061020f565b91505090565b806000806101000a81548173ffffffffffffffffffffffffffffffffffffffff021916908373ffffffffffffffffffffffffffffffffffffffff16021790555050565b600061017c610177846102dc565b6102ab565b90508281526020810184848401111561019457600080fd5b61019f84828561035a565b509392505050565b6000813590506101b6816103cd565b92915050565b600082601f8301126101cd57600080fd5b81516101dd848260208601610169565b91505092915050565b6000602082840312156101f857600080fd5b6000610206848285016101a7565b91505092915050565b60006020828403121561022157600080fd5b600082015167ffffffffffffffff81111561023b57600080fd5b610247848285016101bc565b91505092915050565b600061025b8261030c565b6102658185610317565b935061027581856020860161035a565b61027e816103bc565b840191505092915050565b600060208201905081810360008301526102a38184610250565b905092915050565b6000604051905081810181811067ffffffffffffffff821117156102d2576102d161038d565b5b8060405250919050565b600067ffffffffffffffff8211156102f7576102f661038d565b5b601f19601f8301169050602081019050919050565b600081519050919050565b600082825260208201905092915050565b60006103338261033a565b9050919050565b600073ffffffffffffffffffffffffffffffffffffffff82169050919050565b60005b8381101561037857808201518184015260208101905061035d565b83811115610387576000848401525b50505050565b7f4e487b7100000000000000000000000000000000000000000000000000000000600052604160045260246000fd5b6000601f19601f8301169050919050565b6103d681610328565b81146103e157600080fd5b5056fea2646970667358221220815dce0f3ea37d7dc186ba65daeb990cacb7633dab96ca66a4bdd0478dc785ce64736f6c63430008000033",
  "immutableReferences": {},
  "source": "// SPDX-License-Identifier: GPL-3.0\npragma solidity >=0.6.0<0.9.0;\ncontract function1{\n    address addressB;\n    function setAddress(address _addressB) external{\n         addressB=_addressB;\n    }\n    function callhelloworld() external view returns(string memory){\n           B1 b=B1(addressB);\n          return  b.helloworld();\n    }\n}\ncontract B1{\n    function helloworld() external pure returns(string memory){\n        return \"Hello_World\";\n    }\n}",
  "sourcePath": "/home/ankitkumar/Desktop/ETHEREUM/Ether/contracts/functio3.sol",
  "compiler": {
    "name": "solc",
    "version": "0.8.0+commit.c7dfd78e.Emscripten.clang"
  },
  "schemaVersion": "3.4.3",
  "updatedAt": "2022-01-10T10:58:41.769Z",
  "devdoc": {
    "kind": "dev",
    "methods": {},
    "version": 1
  },
  "userdoc": {
    "kind": "user",
    "methods": {},
    "version": 1
  }
}