{
  "contractName": "funds",
  "abi": [
    {
      "inputs": [
        {
          "internalType": "uint256",
          "name": "",
          "type": "uint256"
        }
      ],
      "name": "funders",
      "outputs": [
        {
          "internalType": "address",
          "name": "",
          "type": "address"
        }
      ],
      "stateMutability": "view",
      "type": "function",
      "constant": true
    },
    {
      "inputs": [],
      "name": "numOfFunders",
      "outputs": [
        {
          "internalType": "uint256",
          "name": "",
          "type": "uint256"
        }
      ],
      "stateMutability": "view",
      "type": "function",
      "constant": true
    },
    {
      "stateMutability": "payable",
      "type": "receive",
      "payable": true
    },
    {
      "inputs": [],
      "name": "transfer",
      "outputs": [],
      "stateMutability": "payable",
      "type": "function",
      "payable": true
    },
    {
      "inputs": [
        {
          "internalType": "uint256",
          "name": "withdrawAmount",
          "type": "uint256"
        }
      ],
      "name": "withdraw",
      "outputs": [],
      "stateMutability": "nonpayable",
      "type": "function"
    },
    {
      "inputs": [],
      "name": "getBalance",
      "outputs": [
        {
          "internalType": "uint256",
          "name": "",
          "type": "uint256"
        }
      ],
      "stateMutability": "view",
      "type": "function",
      "constant": true
    }
  ],
  "bytecode": "0x608060405234801561001057600080fd5b5061048c806100206000396000f3fe60806040526004361061004e5760003560e01c806312065fe01461005a5780632e1a7d4d146100855780638a4068dd146100ae578063af7f2c9b146100b8578063dc0d3dff146100e357610055565b3661005557005b600080fd5b34801561006657600080fd5b5061006f610120565b60405161007c919061035f565b60405180910390f35b34801561009157600080fd5b506100ac60048036038101906100a79190610277565b610128565b005b6100b66101bd565b005b3480156100c457600080fd5b506100cd610229565b6040516100da919061035f565b60405180910390f35b3480156100ef57600080fd5b5061010a60048036038101906101059190610277565b61022f565b6040516101179190610324565b60405180910390f35b600047905090565b671bc16d674ec80000811115610173576040517f08c379a000000000000000000000000000000000000000000000000000000000815260040161016a9061033f565b60405180910390fd5b3373ffffffffffffffffffffffffffffffffffffffff166108fc829081150290604051600060405180830381858888f193505050501580156101b9573d6000803e3d6000fd5b5050565b33600160008054815260200190815260200160002060006101000a81548173ffffffffffffffffffffffffffffffffffffffff021916908373ffffffffffffffffffffffffffffffffffffffff160217905550600080815480929190610222906103c7565b9190505550565b60005481565b60016020528060005260406000206000915054906101000a900473ffffffffffffffffffffffffffffffffffffffff1681565b6000813590506102718161043f565b92915050565b60006020828403121561028957600080fd5b600061029784828501610262565b91505092915050565b6102a98161038b565b82525050565b60006102bc60218361037a565b91507f43616e6e6f74207769746864726177206d6f7265207468616e2032206574686560008301527f72000000000000000000000000000000000000000000000000000000000000006020830152604082019050919050565b61031e816103bd565b82525050565b600060208201905061033960008301846102a0565b92915050565b60006020820190508181036000830152610358816102af565b9050919050565b60006020820190506103746000830184610315565b92915050565b600082825260208201905092915050565b60006103968261039d565b9050919050565b600073ffffffffffffffffffffffffffffffffffffffff82169050919050565b6000819050919050565b60006103d2826103bd565b91507fffffffffffffffffffffffffffffffffffffffffffffffffffffffffffffffff82141561040557610404610410565b5b600182019050919050565b7f4e487b7100000000000000000000000000000000000000000000000000000000600052601160045260246000fd5b610448816103bd565b811461045357600080fd5b5056fea26469706673582212202e04e4f2a1922feb8ec6dc7e9f7fc571e3453fbb63313f6dd52072099d5210b964736f6c63430008000033",
  "immutableReferences": {},
  "source": "// SPDX-License-Identifier: MIT\npragma solidity >=0.4.22 <0.9.0;\n\ncontract funds {\n    uint256 public numOfFunders;\n\n    mapping(uint256 => address) public funders;\n\n    receive() external payable {}\n\n    function transfer() external payable {\n        funders[numOfFunders] = msg.sender;\n        numOfFunders++;\n    }\n\n    function withdraw(uint256 withdrawAmount) external {\n        require(\n            withdrawAmount <= 2000000000000000000,\n            \"Cannot withdraw more than 2 ether\"\n        );\n        payable(msg.sender).transfer(withdrawAmount);\n    }\n    function getBalance() public view returns(uint){\n        return address(this).balance;\n    }\n}",
  "sourcePath": "/home/ankitkumar/Desktop/ETHEREUM/Ether/contracts/funds.sol",
  "compiler": {
    "name": "solc",
    "version": "0.8.0+commit.c7dfd78e.Emscripten.clang"
  },
  "schemaVersion": "3.4.4",
  "updatedAt": "2022-04-15T06:00:31.595Z",
  "networkType": "ethereum",
  "devdoc": {
    "kind": "dev",
    "methods": {},
    "version": 1
  },
  "userdoc": {
    "kind": "user",
    "methods": {},
    "version": 1
  }
}