{
  "contractName": "Lottery",
  "abi": [
    {
      "inputs": [],
      "stateMutability": "nonpayable",
      "type": "constructor"
    },
    {
      "inputs": [],
      "name": "manager",
      "outputs": [
        {
          "internalType": "address",
          "name": "",
          "type": "address"
        }
      ],
      "stateMutability": "view",
      "type": "function"
    },
    {
      "inputs": [
        {
          "internalType": "uint256",
          "name": "",
          "type": "uint256"
        }
      ],
      "name": "players",
      "outputs": [
        {
          "internalType": "address",
          "name": "",
          "type": "address"
        }
      ],
      "stateMutability": "view",
      "type": "function"
    },
    {
      "inputs": [],
      "name": "invest",
      "outputs": [],
      "stateMutability": "payable",
      "type": "function"
    }
  ],
  "bytecode": "0x608060405234801561001057600080fd5b50336000806101000a81548173ffffffffffffffffffffffffffffffffffffffff021916908373ffffffffffffffffffffffffffffffffffffffff160217905550610201806100606000396000f3fe6080604052600436106100345760003560e01c8063481c6a7514610039578063e8b5e51f14610064578063f71d96cb1461006e575b600080fd5b34801561004557600080fd5b5061004e6100ab565b60405161005b919061015d565b60405180910390f35b61006c6100cf565b005b34801561007a57600080fd5b5061009560048036038101906100909190610125565b6100d1565b6040516100a2919061015d565b60405180910390f35b60008054906101000a900473ffffffffffffffffffffffffffffffffffffffff1681565b565b600181815481106100e157600080fd5b906000526020600020016000915054906101000a900473ffffffffffffffffffffffffffffffffffffffff1681565b60008135905061011f816101b4565b92915050565b60006020828403121561013757600080fd5b600061014584828501610110565b91505092915050565b61015781610178565b82525050565b6000602082019050610172600083018461014e565b92915050565b60006101838261018a565b9050919050565b600073ffffffffffffffffffffffffffffffffffffffff82169050919050565b6000819050919050565b6101bd816101aa565b81146101c857600080fd5b5056fea26469706673582212206d6fd99cab5b38217453803b12c855657203690b7677eb06f3eb41003724297664736f6c63430008000033",
  "immutableReferences": {},
  "source": "// SPDX-License-Identifier: GPL-3.0\npragma solidity >=0.6.0<0.9.0;\ncontract Lottery {\n    address public manager;\n    address[] public players;\n    constructor(){\n        manager=msg.sender;\n    }\n    function invest() external payable{\n            \n    }\n}",
  "sourcePath": "/home/ankitkumar/Desktop/ETHEREUM/Ether/contracts/Lottery.sol",
  "compiler": {
    "name": "solc",
    "version": "0.8.0+commit.c7dfd78e.Emscripten.clang"
  },
  "schemaVersion": "3.4.4",
  "updatedAt": "2022-01-27T16:43:31.655Z",
  "devdoc": {
    "kind": "dev",
    "methods": {},
    "version": 1
  },
  "userdoc": {
    "kind": "user",
    "methods": {},
    "version": 1
  }
}