{
  "contractName": "Main2",
  "abi": [
    {
      "constant": false,
      "inputs": [],
      "name": "setbook",
      "outputs": [],
      "payable": false,
      "stateMutability": "nonpayable",
      "type": "function"
    },
    {
      "constant": true,
      "inputs": [],
      "name": "getbookid",
      "outputs": [
        {
          "internalType": "uint256",
          "name": "",
          "type": "uint256"
        }
      ],
      "payable": false,
      "stateMutability": "view",
      "type": "function"
    }
  ],
  "bytecode": "0x608060405234801561001057600080fd5b50610219806100206000396000f3fe608060405234801561001057600080fd5b50600436106100365760003560e01c8063651026e31461003b578063d9726d2e14610059575b600080fd5b610043610063565b6040518082815260200191505060405180910390f35b61006161006f565b005b60008060020154905090565b60405180606001604052806040518060400160405280600781526020017f736f6c696474790000000000000000000000000000000000000000000000000081525081526020016040518060400160405280600281526020017f74700000000000000000000000000000000000000000000000000000000000008152508152602001600181525060008082015181600001908051906020019061011292919061013f565b50602082015181600101908051906020019061012f92919061013f565b5060408201518160020155905050565b828054600181600116156101000203166002900490600052602060002090601f016020900481019282601f1061018057805160ff19168380011785556101ae565b828001600101855582156101ae579182015b828111156101ad578251825591602001919060010190610192565b5b5090506101bb91906101bf565b5090565b6101e191905b808211156101dd5760008160009055506001016101c5565b5090565b9056fea265627a7a72315820fc9d052b1dc07a31e5b0a4f4aadd0ca0540485285e8241b605eb97e89e66ddc464736f6c63430005100032",
  "source": "// SPDX-License-Identifier: MIT\npragma solidity >=0.4.22 <0.9.0;\ncontract Main2{\n    struct Book{\n        string title;\n        string author;\n        uint book_id;\n    }\n    Book book;\n    function setbook() public{\n        book=Book(\"solidty\",\"tp\",1);\n    }\n    function getbookid()public view returns (uint){\n        return book.book_id;\n    }\n    \n}",
  "sourcePath": "/home/ankitkumar/Desktop/ETHEREUM/Ether/contracts/Main2.sol",
  "compiler": {
    "name": "solc",
    "version": "0.5.16+commit.9c3226ce.Emscripten.clang"
  },
  "schemaVersion": "3.4.4",
  "updatedAt": "2022-04-15T06:00:32.580Z",
  "networkType": "ethereum",
  "devdoc": {
    "methods": {}
  },
  "userdoc": {
    "methods": {}
  }
}