{
  "contractName": "Main9",
  "abi": [
    {
      "inputs": [],
      "name": "a",
      "outputs": [
        {
          "internalType": "uint256",
          "name": "",
          "type": "uint256"
        }
      ],
      "stateMutability": "view",
      "type": "function",
      "constant": true
    },
    {
      "inputs": [
        {
          "internalType": "uint256",
          "name": "_a",
          "type": "uint256"
        }
      ],
      "name": "foo",
      "outputs": [],
      "stateMutability": "nonpayable",
      "type": "function"
    }
  ],
  "bytecode": "0x608060405234801561001057600080fd5b506102a7806100206000396000f3fe608060405234801561001057600080fd5b50600436106100365760003560e01c80630dbe671f1461003b5780632fbebd3814610059575b600080fd5b610043610075565b6040516100509190610224565b60405180910390f35b610073600480360381019061006e919061012c565b61007b565b005b60005481565b600054600a600054146100c3576040517f08c379a00000000000000000000000000000000000000000000000000000000081526004016100ba90610204565b60405180910390fd5b60005460146000541461010b576040517f08c379a0000000000000000000000000000000000000000000000000000000008152600401610102906101e4565b60405180910390fd5b82600081905550505050565b6000813590506101268161025a565b92915050565b60006020828403121561013e57600080fd5b600061014c84828501610117565b91505092915050565b600061016260158361023f565b91507f4974206973206e6f7420657175616c20746f20323000000000000000000000006000830152602082019050919050565b60006101a260158361023f565b91507f4974206973206e6f7420657175616c20746f20313000000000000000000000006000830152602082019050919050565b6101de81610250565b82525050565b600060208201905081810360008301526101fd81610155565b9050919050565b6000602082019050818103600083015261021d81610195565b9050919050565b600060208201905061023960008301846101d5565b92915050565b600082825260208201905092915050565b6000819050919050565b61026381610250565b811461026e57600080fd5b5056fea26469706673582212209d4e96600af2eb7cfccd565c00cbe025abca2f2eda83e3462be19f7ef6892f1a64736f6c63430008000033",
  "immutableReferences": {},
  "source": "// SPDX-License-Identifier: GPL-3.0\npragma solidity >=0.6.0<0.9.0;\ncontract Main9{\n    uint public a;\n    function foo(uint _a) external myModifier1(a) myModifier2(a){\n            a=_a;\n    }\n    modifier myModifier1(uint _a){\n        require(a==10,'It is not equal to 10');\n        _ ;\n    }\n    modifier myModifier2(uint _a){\n        require(a==20,'It is not equal to 20');\n        _ ;\n    } \n    }",
  "sourcePath": "/home/ankitkumar/Desktop/ETHEREUM/Ether/contracts/Main9.sol",
  "compiler": {
    "name": "solc",
    "version": "0.8.0+commit.c7dfd78e.Emscripten.clang"
  },
  "schemaVersion": "3.4.4",
  "updatedAt": "2022-04-15T06:00:36.588Z",
  "networkType": "ethereum",
  "devdoc": {
    "kind": "dev",
    "methods": {},
    "version": 1
  },
  "userdoc": {
    "kind": "user",
    "methods": {},
    "version": 1
  }
}