{
  "contractName": "Main6",
  "abi": [
    {
      "inputs": [
        {
          "internalType": "uint256",
          "name": "",
          "type": "uint256"
        }
      ],
      "name": "num",
      "outputs": [
        {
          "internalType": "uint256",
          "name": "",
          "type": "uint256"
        }
      ],
      "stateMutability": "view",
      "type": "function",
      "constant": true
    },
    {
      "inputs": [],
      "name": "counEvenNumber",
      "outputs": [
        {
          "internalType": "uint256",
          "name": "",
          "type": "uint256"
        }
      ],
      "stateMutability": "view",
      "type": "function",
      "constant": true
    },
    {
      "inputs": [
        {
          "internalType": "uint256",
          "name": "_num",
          "type": "uint256"
        }
      ],
      "name": "isEven",
      "outputs": [
        {
          "internalType": "bool",
          "name": "",
          "type": "bool"
        }
      ],
      "stateMutability": "pure",
      "type": "function",
      "constant": true
    }
  ],
  "bytecode": "0x6080604052604051806101200160405280600160ff168152602001600260ff168152602001600360ff168152602001600460ff168152602001600560ff168152602001600660ff168152602001600760ff168152602001600860ff168152602001600960ff16815250600090600961007892919061008b565b5034801561008557600080fd5b506100fa565b8280548282559060005260206000209081019282156100cc579160200282015b828111156100cb578251829060ff169055916020019190600101906100ab565b5b5090506100d991906100dd565b5090565b5b808211156100f65760008160009055506001016100de565b5090565b6103c8806101096000396000f3fe608060405234801561001057600080fd5b50600436106100415760003560e01c80632a2e1320146100465780638bd9c79514610076578063aa228b7514610094575b600080fd5b610060600480360381019061005b91906101ba565b6100c4565b60405161006d9190610201565b60405180910390f35b61007e6100ed565b60405161008b919061021c565b60405180910390f35b6100ae60048036038101906100a991906101ba565b610181565b6040516100bb919061021c565b60405180910390f35b6000806002836100d491906102ec565b14156100e357600190506100e8565b600090505b919050565b6000806000905060005b6000805490508110156101795761015160008281548110610141577f4e487b7100000000000000000000000000000000000000000000000000000000600052603260045260246000fd5b90600052602060002001546100c4565b15610166576001826101639190610237565b91505b8080610171906102a3565b9150506100f7565b508091505090565b6000818154811061019157600080fd5b906000526020600020016000915090505481565b6000813590506101b48161037b565b92915050565b6000602082840312156101cc57600080fd5b60006101da848285016101a5565b91505092915050565b6101ec8161028d565b82525050565b6101fb81610299565b82525050565b600060208201905061021660008301846101e3565b92915050565b600060208201905061023160008301846101f2565b92915050565b600061024282610299565b915061024d83610299565b9250827fffffffffffffffffffffffffffffffffffffffffffffffffffffffffffffffff038211156102825761028161031d565b5b828201905092915050565b60008115159050919050565b6000819050919050565b60006102ae82610299565b91507fffffffffffffffffffffffffffffffffffffffffffffffffffffffffffffffff8214156102e1576102e061031d565b5b600182019050919050565b60006102f782610299565b915061030283610299565b9250826103125761031161034c565b5b828206905092915050565b7f4e487b7100000000000000000000000000000000000000000000000000000000600052601160045260246000fd5b7f4e487b7100000000000000000000000000000000000000000000000000000000600052601260045260246000fd5b61038481610299565b811461038f57600080fd5b5056fea26469706673582212205100794adaf893fed59c6149cd5587e7f3001490790c543553cc2425572863a064736f6c63430008000033",
  "immutableReferences": {},
  "source": "// SPDX-License-Identifier: GPL-3.0\npragma solidity >=0.6.0<0.9.0;\ncontract Main6{\n    \n    uint[] public num=[1,2,3,4,5,6,7,8,9];\n    function counEvenNumber() public view returns(uint){\n        uint count=0;\n        for(uint i=0;i<num.length;i++){\n            if(isEven(num[i])){\n               count+=1;\n            }\n        }\n        return count;\n    }\n    function isEven(uint _num) public pure returns(bool){\n          if(_num%2==0){\n              return true;\n          }\n          else{\n              return false;\n          }\n    }\n    \n    \n}",
  "sourcePath": "/home/ankitkumar/Desktop/ETHEREUM/Ether/contracts/Main6.sol",
  "compiler": {
    "name": "solc",
    "version": "0.8.0+commit.c7dfd78e.Emscripten.clang"
  },
  "schemaVersion": "3.4.4",
  "updatedAt": "2022-04-15T06:00:35.270Z",
  "networkType": "ethereum",
  "devdoc": {
    "kind": "dev",
    "methods": {},
    "version": 1
  },
  "userdoc": {
    "kind": "user",
    "methods": {},
    "version": 1
  }
}