{
  "contractName": "Main5",
  "abi": [
    {
      "inputs": [],
      "stateMutability": "nonpayable",
      "type": "constructor"
    },
    {
      "inputs": [
        {
          "internalType": "uint256",
          "name": "",
          "type": "uint256"
        }
      ],
      "name": "books",
      "outputs": [
        {
          "internalType": "string",
          "name": "tillte",
          "type": "string"
        },
        {
          "internalType": "string",
          "name": "author",
          "type": "string"
        }
      ],
      "stateMutability": "view",
      "type": "function",
      "constant": true
    },
    {
      "inputs": [
        {
          "internalType": "uint256",
          "name": "",
          "type": "uint256"
        }
      ],
      "name": "names",
      "outputs": [
        {
          "internalType": "string",
          "name": "",
          "type": "string"
        }
      ],
      "stateMutability": "view",
      "type": "function",
      "constant": true
    },
    {
      "inputs": [
        {
          "internalType": "uint256",
          "name": "_id",
          "type": "uint256"
        },
        {
          "internalType": "string",
          "name": "_title",
          "type": "string"
        },
        {
          "internalType": "string",
          "name": "_author",
          "type": "string"
        }
      ],
      "name": "addBook",
      "outputs": [],
      "stateMutability": "nonpayable",
      "type": "function"
    }
  ],
  "bytecode": "0x608060405234801561001057600080fd5b506040518060400160405280600581526020017f416e6b697400000000000000000000000000000000000000000000000000000081525060008060018152602001908152602001600020908051906020019061006d92919061012d565b506040518060400160405280600581526020017f6b756d61720000000000000000000000000000000000000000000000000000008152506000806002815260200190815260200160002090805190602001906100ca92919061012d565b506040518060400160405280600681526020017f426861676174000000000000000000000000000000000000000000000000000081525060008060038152602001908152602001600020908051906020019061012792919061012d565b50610231565b828054610139906101d0565b90600052602060002090601f01602090048101928261015b57600085556101a2565b82601f1061017457805160ff19168380011785556101a2565b828001600101855582156101a2579182015b828111156101a1578251825591602001919060010190610186565b5b5090506101af91906101b3565b5090565b5b808211156101cc5760008160009055506001016101b4565b5090565b600060028204905060018216806101e857607f821691505b602082108114156101fc576101fb610202565b5b50919050565b7f4e487b7100000000000000000000000000000000000000000000000000000000600052602260045260246000fd5b610712806102406000396000f3fe608060405234801561001057600080fd5b50600436106100415760003560e01c8063028414f2146100465780634622ab03146100625780636874404614610092575b600080fd5b610060600480360381019061005b919061044a565b6100c3565b005b61007c60048036038101906100779190610421565b61012d565b6040516100899190610502565b60405180910390f35b6100ac60048036038101906100a79190610421565b6101cd565b6040516100ba929190610524565b60405180910390f35b604051806040016040528083815260200182815250600160008581526020019081526020016000206000820151816000019080519060200190610107929190610301565b506020820151816001019080519060200190610124929190610301565b50905050505050565b6000602052806000526040600020600091509050805461014c90610624565b80601f016020809104026020016040519081016040528092919081815260200182805461017890610624565b80156101c55780601f1061019a576101008083540402835291602001916101c5565b820191906000526020600020905b8154815290600101906020018083116101a857829003601f168201915b505050505081565b60016020528060005260406000206000915090508060000180546101f090610624565b80601f016020809104026020016040519081016040528092919081815260200182805461021c90610624565b80156102695780601f1061023e57610100808354040283529160200191610269565b820191906000526020600020905b81548152906001019060200180831161024c57829003601f168201915b50505050509080600101805461027e90610624565b80601f01602080910402602001604051908101604052809291908181526020018280546102aa90610624565b80156102f75780601f106102cc576101008083540402835291602001916102f7565b820191906000526020600020905b8154815290600101906020018083116102da57829003601f168201915b5050505050905082565b82805461030d90610624565b90600052602060002090601f01602090048101928261032f5760008555610376565b82601f1061034857805160ff1916838001178555610376565b82800160010185558215610376579182015b8281111561037557825182559160200191906001019061035a565b5b5090506103839190610387565b5090565b5b808211156103a0576000816000905550600101610388565b5090565b60006103b76103b28461058c565b61055b565b9050828152602081018484840111156103cf57600080fd5b6103da8482856105e2565b509392505050565b600082601f8301126103f357600080fd5b81356104038482602086016103a4565b91505092915050565b60008135905061041b816106c5565b92915050565b60006020828403121561043357600080fd5b60006104418482850161040c565b91505092915050565b60008060006060848603121561045f57600080fd5b600061046d8682870161040c565b935050602084013567ffffffffffffffff81111561048a57600080fd5b610496868287016103e2565b925050604084013567ffffffffffffffff8111156104b357600080fd5b6104bf868287016103e2565b9150509250925092565b60006104d4826105bc565b6104de81856105c7565b93506104ee8185602086016105f1565b6104f7816106b4565b840191505092915050565b6000602082019050818103600083015261051c81846104c9565b905092915050565b6000604082019050818103600083015261053e81856104c9565b9050818103602083015261055281846104c9565b90509392505050565b6000604051905081810181811067ffffffffffffffff8211171561058257610581610685565b5b8060405250919050565b600067ffffffffffffffff8211156105a7576105a6610685565b5b601f19601f8301169050602081019050919050565b600081519050919050565b600082825260208201905092915050565b6000819050919050565b82818337600083830152505050565b60005b8381101561060f5780820151818401526020810190506105f4565b8381111561061e576000848401525b50505050565b6000600282049050600182168061063c57607f821691505b602082108114156106505761064f610656565b5b50919050565b7f4e487b7100000000000000000000000000000000000000000000000000000000600052602260045260246000fd5b7f4e487b7100000000000000000000000000000000000000000000000000000000600052604160045260246000fd5b6000601f19601f8301169050919050565b6106ce816105d8565b81146106d957600080fd5b5056fea2646970667358221220fbc5660fcef1f26cddc136d787a7fda7e7dcfd541640dedacc14fd53a87e060864736f6c63430008000033",
  "immutableReferences": {},
  "source": "// SPDX-License-Identifier: GPL-3.0\npragma solidity >=0.6.0 < 0.9.0;\ncontract Main5{\n    mapping (uint=>string) public names;\n    mapping (uint=>Book) public books;\n    struct Book{\n        string tillte;\n        string author;\n    }\n    constructor() {\n        names[1]=\"Ankit\";\n        names[2]=\"kumar\";\n        names[3]=\"Bhagat\";\n    }\n    function addBook(uint _id,string memory _title,string memory _author) public{\n        books[_id]=Book(_title,_author);\n    }\n}",
  "sourcePath": "/home/ankitkumar/Desktop/ETHEREUM/Ether/contracts/Main5.sol",
  "compiler": {
    "name": "solc",
    "version": "0.8.0+commit.c7dfd78e.Emscripten.clang"
  },
  "schemaVersion": "3.4.4",
  "updatedAt": "2022-04-15T06:00:34.793Z",
  "networkType": "ethereum",
  "devdoc": {
    "kind": "dev",
    "methods": {},
    "version": 1
  },
  "userdoc": {
    "kind": "user",
    "methods": {},
    "version": 1
  }
}