{
  "contractName": "Main8",
  "abi": [
    {
      "inputs": [],
      "name": "getAddress",
      "outputs": [
        {
          "internalType": "address",
          "name": "",
          "type": "address"
        }
      ],
      "stateMutability": "view",
      "type": "function",
      "constant": true
    },
    {
      "inputs": [],
      "name": "invest",
      "outputs": [],
      "stateMutability": "payable",
      "type": "function",
      "payable": true
    },
    {
      "inputs": [],
      "name": "balaneof",
      "outputs": [
        {
          "internalType": "uint256",
          "name": "",
          "type": "uint256"
        }
      ],
      "stateMutability": "view",
      "type": "function",
      "constant": true
    }
  ],
  "bytecode": "0x608060405234801561001057600080fd5b50610171806100206000396000f3fe6080604052600436106100345760003560e01c806338cc483114610039578063811ba93314610064578063e8b5e51f1461008f575b600080fd5b34801561004557600080fd5b5061004e610099565b60405161005b91906100c9565b60405180910390f35b34801561007057600080fd5b506100796100a1565b60405161008691906100e4565b60405180910390f35b6100976100a9565b005b600030905090565b600047905090565b565b6100b4816100ff565b82525050565b6100c381610131565b82525050565b60006020820190506100de60008301846100ab565b92915050565b60006020820190506100f960008301846100ba565b92915050565b600061010a82610111565b9050919050565b600073ffffffffffffffffffffffffffffffffffffffff82169050919050565b600081905091905056fea2646970667358221220d0802e12c8aee67cc4c6f2df932f7684c42c7c19a895394c46616a6da3b9a2c764736f6c63430008000033",
  "immutableReferences": {},
  "source": "// SPDX-License-Identifier: GPL-3.0\npragma solidity >=0.6.0<0.9.0;\ncontract Main8{\n    function getAddress() public view returns(address){\n        return address(this);\n    }\n    function invest() external payable{\n\n    }\n    function balaneof() public view returns(uint){\n        return address(this).balance;\n    } \n}",
  "sourcePath": "/home/ankitkumar/Desktop/ETHEREUM/Ether/contracts/Main8.sol",
  "compiler": {
    "name": "solc",
    "version": "0.8.0+commit.c7dfd78e.Emscripten.clang"
  },
  "schemaVersion": "3.4.4",
  "updatedAt": "2022-02-01T20:38:51.254Z",
  "networkType": "ethereum",
  "devdoc": {
    "kind": "dev",
    "methods": {},
    "version": 1
  },
  "userdoc": {
    "kind": "user",
    "methods": {},
    "version": 1
  }
}