{
  "contractName": "Main4",
  "abi": [
    {
      "constant": true,
      "inputs": [
        {
          "internalType": "uint256",
          "name": "",
          "type": "uint256"
        },
        {
          "internalType": "uint256",
          "name": "",
          "type": "uint256"
        }
      ],
      "name": "Array2d",
      "outputs": [
        {
          "internalType": "uint256",
          "name": "",
          "type": "uint256"
        }
      ],
      "payable": false,
      "stateMutability": "view",
      "type": "function"
    },
    {
      "constant": true,
      "inputs": [
        {
          "internalType": "uint256",
          "name": "",
          "type": "uint256"
        }
      ],
      "name": "str1",
      "outputs": [
        {
          "internalType": "string",
          "name": "",
          "type": "string"
        }
      ],
      "payable": false,
      "stateMutability": "view",
      "type": "function"
    },
    {
      "constant": true,
      "inputs": [
        {
          "internalType": "uint256",
          "name": "",
          "type": "uint256"
        }
      ],
      "name": "stringArray",
      "outputs": [
        {
          "internalType": "string",
          "name": "",
          "type": "string"
        }
      ],
      "payable": false,
      "stateMutability": "view",
      "type": "function"
    },
    {
      "constant": true,
      "inputs": [
        {
          "internalType": "uint256",
          "name": "",
          "type": "uint256"
        }
      ],
      "name": "uintArray",
      "outputs": [
        {
          "internalType": "uint256",
          "name": "",
          "type": "uint256"
        }
      ],
      "payable": false,
      "stateMutability": "view",
      "type": "function"
    },
    {
      "constant": false,
      "inputs": [
        {
          "internalType": "string",
          "name": "_values",
          "type": "string"
        }
      ],
      "name": "add_values",
      "outputs": [],
      "payable": false,
      "stateMutability": "nonpayable",
      "type": "function"
    },
    {
      "constant": true,
      "inputs": [],
      "name": "getLength",
      "outputs": [
        {
          "internalType": "uint256",
          "name": "",
          "type": "uint256"
        }
      ],
      "payable": false,
      "stateMutability": "view",
      "type": "function"
    }
  ],
  "bytecode": "0x60806040526040518060800160405280600160ff168152602001600260ff168152602001600360ff168152602001600460ff168152506000906004620000479291906200019d565b5060405180606001604052806040518060400160405280600581526020017f416e6b697400000000000000000000000000000000000000000000000000000081525081526020016040518060400160405280600581526020017f6b756d617200000000000000000000000000000000000000000000000000000081525081526020016040518060400160405280600681526020017f4268616761740000000000000000000000000000000000000000000000000000815250815250600190600362000114929190620001f4565b5060405180604001604052806040518060600160405280600160ff168152602001600260ff168152602001600360ff1681525081526020016040518060600160405280602d60ff168152602001600660ff168152602001600760ff168152508152506003906002620001889291906200025b565b503480156200019657600080fd5b5062000494565b828054828255906000526020600020908101928215620001e1579160200282015b82811115620001e0578251829060ff16905591602001919060010190620001be565b5b509050620001f09190620002bd565b5090565b82805482825590600052602060002090810192821562000248579160200282015b828111156200024757825182908051906020019062000236929190620002e5565b509160200191906001019062000215565b5b5090506200025791906200036c565b5090565b828054828255906000526020600020908101928215620002aa579160200282015b82811115620002a957825182906003620002989291906200039d565b50916020019190600101906200027c565b5b509050620002b99190620003f4565b5090565b620002e291905b80821115620002de576000816000905550600101620002c4565b5090565b90565b828054600181600116156101000203166002900490600052602060002090601f016020900481019282601f106200032857805160ff191683800117855562000359565b8280016001018555821562000359579182015b82811115620003585782518255916020019190600101906200033b565b5b509050620003689190620002bd565b5090565b6200039a91905b808211156200039657600081816200038c919062000425565b5060010162000373565b5090565b90565b828054828255906000526020600020908101928215620003e1579160200282015b82811115620003e0578251829060ff16905591602001919060010190620003be565b5b509050620003f09190620002bd565b5090565b6200042291905b808211156200041e576000818162000414919062000471565b50600101620003fb565b5090565b90565b50805460018160011615610100020316600290046000825580601f106200044d57506200046e565b601f0160209004906000526020600020908101906200046d9190620002bd565b5b50565b5080546000825590600052602060002090810190620004919190620002bd565b50565b61060e80620004a46000396000f3fe608060405234801561001057600080fd5b50600436106100625760003560e01c80632eae33fd1461006757806337261f10146101225780636422c4c8146101c957806386d3c82b146102705780639ae918c7146102bc578063be1c766b146102fe575b600080fd5b6101206004803603602081101561007d57600080fd5b810190808035906020019064010000000081111561009a57600080fd5b8201836020820111156100ac57600080fd5b803590602001918460018302840111640100000000831117156100ce57600080fd5b91908080601f016020809104026020016040519081016040528093929190818152602001838380828437600081840152601f19601f82011690508083019250505050505050919291929050505061031c565b005b61014e6004803603602081101561013857600080fd5b810190808035906020019092919050505061035e565b6040518080602001828103825283818151815260200191508051906020019080838360005b8381101561018e578082015181840152602081019050610173565b50505050905090810190601f1680156101bb5780820380516001836020036101000a031916815260200191505b509250505060405180910390f35b6101f5600480360360208110156101df57600080fd5b8101908080359060200190929190505050610417565b6040518080602001828103825283818151815260200191508051906020019080838360005b8381101561023557808201518184015260208101905061021a565b50505050905090810190601f1680156102625780820380516001836020036101000a031916815260200191505b509250505060405180910390f35b6102a66004803603604081101561028657600080fd5b8101908080359060200190929190803590602001909291905050506104d0565b6040518082815260200191505060405180910390f35b6102e8600480360360208110156102d257600080fd5b8101908080359060200190929190505050610507565b6040518082815260200191505060405180910390f35b610306610528565b6040518082815260200191505060405180910390f35b6002819080600181540180825580915050906001820390600052602060002001600090919290919091509080519060200190610359929190610534565b505050565b6002818154811061036b57fe5b906000526020600020016000915090508054600181600116156101000203166002900480601f01602080910402602001604051908101604052809291908181526020018280546001816001161561010002031660029004801561040f5780601f106103e45761010080835404028352916020019161040f565b820191906000526020600020905b8154815290600101906020018083116103f257829003601f168201915b505050505081565b6001818154811061042457fe5b906000526020600020016000915090508054600181600116156101000203166002900480601f0160208091040260200160405190810160405280929190818152602001828054600181600116156101000203166002900480156104c85780601f1061049d576101008083540402835291602001916104c8565b820191906000526020600020905b8154815290600101906020018083116104ab57829003601f168201915b505050505081565b600382815481106104dd57fe5b9060005260206000200181815481106104f257fe5b90600052602060002001600091509150505481565b6000818154811061051457fe5b906000526020600020016000915090505481565b60008080549050905090565b828054600181600116156101000203166002900490600052602060002090601f016020900481019282601f1061057557805160ff19168380011785556105a3565b828001600101855582156105a3579182015b828111156105a2578251825591602001919060010190610587565b5b5090506105b091906105b4565b5090565b6105d691905b808211156105d25760008160009055506001016105ba565b5090565b9056fea265627a7a723158209e19d625b42a2a8039f88d7a8c4851585d646c60bd941c638263ba05ab4812c264736f6c63430005100032",
  "source": "// SPDX-License-Identifier: GPL-3.0\npragma solidity >=0.5.0 <0.9.0;\ncontract Main4{\n    uint[] public uintArray=[1,2,3,4];\n    string[] public stringArray=[\"Ankit\",\"kumar\",\"Bhagat\"];\n    string[] public str1 ;\n    uint[][] public Array2d=[[1,2,3],[45,6,7]];\n    \n    function add_values(string memory _values) public {\n         str1.push(_values);\n    }\n    function getLength()public view returns(uint){\n        return uintArray.length;\n    }\n    \n}",
  "sourcePath": "/home/ankitkumar/Desktop/ETHEREUM/Ether/contracts/Main4.sol",
  "compiler": {
    "name": "solc",
    "version": "0.5.16+commit.9c3226ce.Emscripten.clang"
  },
  "schemaVersion": "3.4.4",
  "updatedAt": "2022-04-15T06:00:34.243Z",
  "networkType": "ethereum",
  "devdoc": {
    "methods": {}
  },
  "userdoc": {
    "methods": {}
  }
}