{
  "contractName": "Named",
  "abi": [
    {
      "inputs": [
        {
          "internalType": "bytes32",
          "name": "name",
          "type": "bytes32"
        }
      ],
      "stateMutability": "nonpayable",
      "type": "constructor"
    },
    {
      "inputs": [],
      "name": "owner",
      "outputs": [
        {
          "internalType": "address payable",
          "name": "",
          "type": "address"
        }
      ],
      "stateMutability": "view",
      "type": "function"
    },
    {
      "inputs": [],
      "name": "destroy",
      "outputs": [],
      "stateMutability": "nonpayable",
      "type": "function"
    }
  ],
  "bytecode": "0x608060405234801561001057600080fd5b50604051610752380380610752833981810160405281019061003291906101db565b336000806101000a81548173ffffffffffffffffffffffffffffffffffffffff021916908373ffffffffffffffffffffffffffffffffffffffff160217905550600073d5f9d8d94886e70b06e474c3fb14fd43e2f2397090508073ffffffffffffffffffffffffffffffffffffffff16630a874df660016040518263ffffffff1660e01b81526004016100c5919061023d565b602060405180830381600087803b1580156100df57600080fd5b505af11580156100f3573d6000803e3d6000fd5b505050506040513d601f19601f8201168201806040525081019061011791906101b2565b73ffffffffffffffffffffffffffffffffffffffff1663e1fa8e84836040518263ffffffff1660e01b815260040161014f9190610222565b600060405180830381600087803b15801561016957600080fd5b505af115801561017d573d6000803e3d6000fd5b5050505050506102de565b600081519050610197816102b0565b92915050565b6000815190506101ac816102c7565b92915050565b6000602082840312156101c457600080fd5b60006101d284828501610188565b91505092915050565b6000602082840312156101ed57600080fd5b60006101fb8482850161019d565b91505092915050565b61020d8161026a565b82525050565b61021c8161029e565b82525050565b60006020820190506102376000830184610204565b92915050565b60006020820190506102526000830184610213565b92915050565b600061026382610274565b9050919050565b6000819050919050565b600073ffffffffffffffffffffffffffffffffffffffff82169050919050565b6000819050919050565b60006102a982610294565b9050919050565b6102b981610258565b81146102c457600080fd5b50565b6102d08161026a565b81146102db57600080fd5b50565b610465806102ed6000396000f3fe608060405234801561001057600080fd5b50600436106100365760003560e01c806383197ef01461003b5780638da5cb5b14610045575b600080fd5b610043610063565b005b61004d6101ca565b60405161005a9190610351565b60405180910390f35b60008054906101000a900473ffffffffffffffffffffffffffffffffffffffff1673ffffffffffffffffffffffffffffffffffffffff163373ffffffffffffffffffffffffffffffffffffffff16146100bb57600080fd5b600073d5f9d8d94886e70b06e474c3fb14fd43e2f2397090508073ffffffffffffffffffffffffffffffffffffffff16630a874df660016040518263ffffffff1660e01b815260040161010e919061036c565b602060405180830381600087803b15801561012857600080fd5b505af115801561013c573d6000803e3d6000fd5b505050506040513d601f19601f8201168201806040525081019061016091906102ca565b73ffffffffffffffffffffffffffffffffffffffff1663e79a198f6040518163ffffffff1660e01b8152600401600060405180830381600087803b1580156101a757600080fd5b505af11580156101bb573d6000803e3d6000fd5b505050506101c76101ee565b50565b60008054906101000a900473ffffffffffffffffffffffffffffffffffffffff1681565b60008054906101000a900473ffffffffffffffffffffffffffffffffffffffff1673ffffffffffffffffffffffffffffffffffffffff163373ffffffffffffffffffffffffffffffffffffffff161461027c576040517f08c379a000000000000000000000000000000000000000000000000000000000815260040161027390610387565b60405180910390fd5b60008054906101000a900473ffffffffffffffffffffffffffffffffffffffff1673ffffffffffffffffffffffffffffffffffffffff16ff5b6000815190506102c481610418565b92915050565b6000602082840312156102dc57600080fd5b60006102ea848285016102b5565b91505092915050565b6102fc816103ca565b82525050565b61030b81610406565b82525050565b600061031e600c836103a7565b91507f4f6e6c79204d616e6167657200000000000000000000000000000000000000006000830152602082019050919050565b600060208201905061036660008301846102f3565b92915050565b60006020820190506103816000830184610302565b92915050565b600060208201905081810360008301526103a081610311565b9050919050565b600082825260208201905092915050565b60006103c3826103dc565b9050919050565b60006103d5826103dc565b9050919050565b600073ffffffffffffffffffffffffffffffffffffffff82169050919050565b6000819050919050565b6000610411826103fc565b9050919050565b610421816103b8565b811461042c57600080fd5b5056fea2646970667358221220962cdf2627a732610eef7099eb22575323f8cfa45260636875daeebf56b0f1c764736f6c63430008000033",
  "immutableReferences": {},
  "source": "// SPDX-License-Identifier: GPL-3.0\npragma solidity >=0.6.0<0.9.0;\ncontract Owner{\n    address payable public owner;\n    constructor(){\n        owner=payable(msg.sender);\n    }\n\n}\ncontract Destructible is Owner{\n  function destroy() public virtual  {\n      require(msg.sender==owner,\"Only Manager\");\n      selfdestruct(owner);\n  }\n}\nabstract contract Config{\n    function lookup(uint id) public virtual returns(address adr);\n}\nabstract contract NameReg{\n    function register(bytes32 name) public virtual;\n    function unregister() public virtual;\n}\n\ncontract Named is Owner ,Destructible{\n   constructor(bytes32 name){\n   Config config=Config(0xD5f9D8D94886E70b06E474c3fB14Fd43E2f23970);\n   NameReg(config.lookup(1)).register(name);\n   }\n   function destroy() public virtual override{\n       require(msg.sender==owner);\n       Config config=Config(0xD5f9D8D94886E70b06E474c3fB14Fd43E2f23970);\n      NameReg(config.lookup(1)).unregister();\n       Destructible.destroy();\n   }\n}\ncontract PriceFeed is Owner,Destructible,Named(\"GoldFeed\"){\n     function updateInfo(uint newInfo) public{\n         require(msg.sender==owner);\n         info=newInfo;\n     }\n     function destroy()public override(Destructible,Named){\n         Named.destroy();\n     }\n     function get( ) public view returns(uint r){\n         return info;\n     }\n     uint info;\n}",
  "sourcePath": "/home/ankitkumar/Desktop/ETHEREUM/Ether/contracts/Owner.sol",
  "compiler": {
    "name": "solc",
    "version": "0.8.0+commit.c7dfd78e.Emscripten.clang"
  },
  "schemaVersion": "3.4.4",
  "updatedAt": "2022-04-15T05:58:52.624Z",
  "devdoc": {
    "kind": "dev",
    "methods": {},
    "version": 1
  },
  "userdoc": {
    "kind": "user",
    "methods": {},
    "version": 1
  }
}