{
  "contractName": "Owner",
  "abi": [
    {
      "inputs": [],
      "stateMutability": "nonpayable",
      "type": "constructor"
    },
    {
      "inputs": [],
      "name": "owner",
      "outputs": [
        {
          "internalType": "address payable",
          "name": "",
          "type": "address"
        }
      ],
      "stateMutability": "view",
      "type": "function"
    }
  ],
  "bytecode": "0x608060405234801561001057600080fd5b50336000806101000a81548173ffffffffffffffffffffffffffffffffffffffff021916908373ffffffffffffffffffffffffffffffffffffffff16021790555060f78061005f6000396000f3fe6080604052348015600f57600080fd5b506004361060285760003560e01c80638da5cb5b14602d575b600080fd5b60336047565b604051603e91906078565b60405180910390f35b60008054906101000a900473ffffffffffffffffffffffffffffffffffffffff1681565b6072816091565b82525050565b6000602082019050608b6000830184606b565b92915050565b6000609a8260a1565b9050919050565b600073ffffffffffffffffffffffffffffffffffffffff8216905091905056fea2646970667358221220d3e17bef87810d311c5a87f6bd8f1df13e70e7f7d4b4cbb8f013ed8e070137dc64736f6c63430008000033",
  "immutableReferences": {},
  "source": "// SPDX-License-Identifier: GPL-3.0\npragma solidity >=0.6.0<0.9.0;\ncontract Owner{\n    address payable public owner;\n    constructor(){\n        owner=payable(msg.sender);\n    }\n\n}\ncontract Destructible is Owner{\n  function destroy() public virtual  {\n      require(msg.sender==owner,\"Only Manager\");\n      selfdestruct(owner);\n  }\n}\nabstract contract Config{\n    function lookup(uint id) public virtual returns(address adr);\n}\nabstract contract NameReg{\n    function register(bytes32 name) public virtual;\n    function unregister() public virtual;\n}\n\ncontract Named is Owner ,Destructible{\n   constructor(bytes32 name){\n   Config config=Config(0xD5f9D8D94886E70b06E474c3fB14Fd43E2f23970);\n   NameReg(config.lookup(1)).register(name);\n   }\n   function destroy() public virtual override{\n       require(msg.sender==owner);\n       Config config=Config(0xD5f9D8D94886E70b06E474c3fB14Fd43E2f23970);\n      NameReg(config.lookup(1)).unregister();\n       Destructible.destroy();\n   }\n}\ncontract PriceFeed is Owner,Destructible,Named(\"GoldFeed\"){\n     function updateInfo(uint newInfo) public{\n         require(msg.sender==owner);\n         info=newInfo;\n     }\n     function destroy()public override(Destructible,Named){\n         Named.destroy();\n     }\n     function get( ) public view returns(uint r){\n         return info;\n     }\n     uint info;\n}",
  "sourcePath": "/home/ankitkumar/Desktop/ETHEREUM/Ether/contracts/Owner.sol",
  "compiler": {
    "name": "solc",
    "version": "0.8.0+commit.c7dfd78e.Emscripten.clang"
  },
  "schemaVersion": "3.4.4",
  "updatedAt": "2022-04-15T05:58:52.629Z",
  "devdoc": {
    "kind": "dev",
    "methods": {},
    "version": 1
  },
  "userdoc": {
    "kind": "user",
    "methods": {},
    "version": 1
  }
}