{
  "contractName": "PriceFeed",
  "abi": [
    {
      "inputs": [],
      "name": "owner",
      "outputs": [
        {
          "internalType": "address payable",
          "name": "",
          "type": "address"
        }
      ],
      "stateMutability": "view",
      "type": "function"
    },
    {
      "inputs": [
        {
          "internalType": "uint256",
          "name": "newInfo",
          "type": "uint256"
        }
      ],
      "name": "updateInfo",
      "outputs": [],
      "stateMutability": "nonpayable",
      "type": "function"
    },
    {
      "inputs": [],
      "name": "destroy",
      "outputs": [],
      "stateMutability": "nonpayable",
      "type": "function"
    },
    {
      "inputs": [],
      "name": "get",
      "outputs": [
        {
          "internalType": "uint256",
          "name": "r",
          "type": "uint256"
        }
      ],
      "stateMutability": "view",
      "type": "function"
    }
  ],
  "bytecode": "0x608060405234801561001057600080fd5b507f476f6c6446656564000000000000000000000000000000000000000000000000336000806101000a81548173ffffffffffffffffffffffffffffffffffffffff021916908373ffffffffffffffffffffffffffffffffffffffff160217905550600073d5f9d8d94886e70b06e474c3fb14fd43e2f2397090508073ffffffffffffffffffffffffffffffffffffffff16630a874df660016040518263ffffffff1660e01b81526004016100c591906101ff565b602060405180830381600087803b1580156100df57600080fd5b505af11580156100f3573d6000803e3d6000fd5b505050506040513d601f19601f82011682018060405250810190610117919061019d565b73ffffffffffffffffffffffffffffffffffffffff1663e1fa8e84836040518263ffffffff1660e01b815260040161014f91906101e4565b600060405180830381600087803b15801561016957600080fd5b505af115801561017d573d6000803e3d6000fd5b505050505050610289565b60008151905061019781610272565b92915050565b6000602082840312156101af57600080fd5b60006101bd84828501610188565b91505092915050565b6101cf8161022c565b82525050565b6101de81610260565b82525050565b60006020820190506101f960008301846101c6565b92915050565b600060208201905061021460008301846101d5565b92915050565b600061022582610236565b9050919050565b6000819050919050565b600073ffffffffffffffffffffffffffffffffffffffff82169050919050565b6000819050919050565b600061026b82610256565b9050919050565b61027b8161021a565b811461028657600080fd5b50565b6105aa806102986000396000f3fe608060405234801561001057600080fd5b506004361061004c5760003560e01c8063316db7f2146100515780636d4ce63c1461006d57806383197ef01461008b5780638da5cb5b14610095575b600080fd5b61006b600480360381019061006691906103ce565b6100b3565b005b610075610115565b60405161008291906104ba565b60405180910390f35b61009361011f565b005b61009d610129565b6040516100aa9190610464565b60405180910390f35b60008054906101000a900473ffffffffffffffffffffffffffffffffffffffff1673ffffffffffffffffffffffffffffffffffffffff163373ffffffffffffffffffffffffffffffffffffffff161461010b57600080fd5b8060018190555050565b6000600154905090565b61012761014d565b565b60008054906101000a900473ffffffffffffffffffffffffffffffffffffffff1681565b60008054906101000a900473ffffffffffffffffffffffffffffffffffffffff1673ffffffffffffffffffffffffffffffffffffffff163373ffffffffffffffffffffffffffffffffffffffff16146101a557600080fd5b600073d5f9d8d94886e70b06e474c3fb14fd43e2f2397090508073ffffffffffffffffffffffffffffffffffffffff16630a874df660016040518263ffffffff1660e01b81526004016101f8919061047f565b602060405180830381600087803b15801561021257600080fd5b505af1158015610226573d6000803e3d6000fd5b505050506040513d601f19601f8201168201806040525081019061024a91906103a5565b73ffffffffffffffffffffffffffffffffffffffff1663e79a198f6040518163ffffffff1660e01b8152600401600060405180830381600087803b15801561029157600080fd5b505af11580156102a5573d6000803e3d6000fd5b505050506102b16102b4565b50565b60008054906101000a900473ffffffffffffffffffffffffffffffffffffffff1673ffffffffffffffffffffffffffffffffffffffff163373ffffffffffffffffffffffffffffffffffffffff1614610342576040517f08c379a00000000000000000000000000000000000000000000000000000000081526004016103399061049a565b60405180910390fd5b60008054906101000a900473ffffffffffffffffffffffffffffffffffffffff1673ffffffffffffffffffffffffffffffffffffffff16ff5b60008151905061038a81610546565b92915050565b60008135905061039f8161055d565b92915050565b6000602082840312156103b757600080fd5b60006103c58482850161037b565b91505092915050565b6000602082840312156103e057600080fd5b60006103ee84828501610390565b91505092915050565b610400816104f8565b82525050565b61040f81610534565b82525050565b6000610422600c836104d5565b91507f4f6e6c79204d616e6167657200000000000000000000000000000000000000006000830152602082019050919050565b61045e8161052a565b82525050565b600060208201905061047960008301846103f7565b92915050565b60006020820190506104946000830184610406565b92915050565b600060208201905081810360008301526104b381610415565b9050919050565b60006020820190506104cf6000830184610455565b92915050565b600082825260208201905092915050565b60006104f18261050a565b9050919050565b60006105038261050a565b9050919050565b600073ffffffffffffffffffffffffffffffffffffffff82169050919050565b6000819050919050565b600061053f8261052a565b9050919050565b61054f816104e6565b811461055a57600080fd5b50565b6105668161052a565b811461057157600080fd5b5056fea26469706673582212209b287f907f1294dc892b53febf9fbac8085969ad4cebeb21a330fc58130fc50664736f6c63430008000033",
  "immutableReferences": {},
  "source": "// SPDX-License-Identifier: GPL-3.0\npragma solidity >=0.6.0<0.9.0;\ncontract Owner{\n    address payable public owner;\n    constructor(){\n        owner=payable(msg.sender);\n    }\n\n}\ncontract Destructible is Owner{\n  function destroy() public virtual  {\n      require(msg.sender==owner,\"Only Manager\");\n      selfdestruct(owner);\n  }\n}\nabstract contract Config{\n    function lookup(uint id) public virtual returns(address adr);\n}\nabstract contract NameReg{\n    function register(bytes32 name) public virtual;\n    function unregister() public virtual;\n}\n\ncontract Named is Owner ,Destructible{\n   constructor(bytes32 name){\n   Config config=Config(0xD5f9D8D94886E70b06E474c3fB14Fd43E2f23970);\n   NameReg(config.lookup(1)).register(name);\n   }\n   function destroy() public virtual override{\n       require(msg.sender==owner);\n       Config config=Config(0xD5f9D8D94886E70b06E474c3fB14Fd43E2f23970);\n      NameReg(config.lookup(1)).unregister();\n       Destructible.destroy();\n   }\n}\ncontract PriceFeed is Owner,Destructible,Named(\"GoldFeed\"){\n     function updateInfo(uint newInfo) public{\n         require(msg.sender==owner);\n         info=newInfo;\n     }\n     function destroy()public override(Destructible,Named){\n         Named.destroy();\n     }\n     function get( ) public view returns(uint r){\n         return info;\n     }\n     uint info;\n}",
  "sourcePath": "/home/ankitkumar/Desktop/ETHEREUM/Ether/contracts/Owner.sol",
  "compiler": {
    "name": "solc",
    "version": "0.8.0+commit.c7dfd78e.Emscripten.clang"
  },
  "schemaVersion": "3.4.4",
  "updatedAt": "2022-04-15T05:58:52.633Z",
  "devdoc": {
    "kind": "dev",
    "methods": {},
    "version": 1
  },
  "userdoc": {
    "kind": "user",
    "methods": {},
    "version": 1
  }
}