{
  "contractName": "Return",
  "abi": [
    {
      "inputs": [
        {
          "internalType": "uint256",
          "name": "a",
          "type": "uint256"
        },
        {
          "internalType": "uint256",
          "name": "b",
          "type": "uint256"
        }
      ],
      "name": "Simple",
      "outputs": [
        {
          "internalType": "uint256",
          "name": "_a",
          "type": "uint256"
        },
        {
          "internalType": "uint256",
          "name": "_b",
          "type": "uint256"
        }
      ],
      "stateMutability": "pure",
      "type": "function",
      "constant": true
    }
  ],
  "bytecode": "0x608060405234801561001057600080fd5b50610246806100206000396000f3fe608060405234801561001057600080fd5b506004361061002b5760003560e01c8063e94b0f3314610030575b600080fd5b61004a6004803603810190610045919061009c565b610061565b6040516100589291906100e7565b60405180910390f35b60008082846100709190610110565b9150828461007e9190610166565b90509250929050565b600081359050610096816101f9565b92915050565b600080604083850312156100af57600080fd5b60006100bd85828601610087565b92505060206100ce85828601610087565b9150509250929050565b6100e1816101c0565b82525050565b60006040820190506100fc60008301856100d8565b61010960208301846100d8565b9392505050565b600061011b826101c0565b9150610126836101c0565b9250827fffffffffffffffffffffffffffffffffffffffffffffffffffffffffffffffff0382111561015b5761015a6101ca565b5b828201905092915050565b6000610171826101c0565b915061017c836101c0565b9250817fffffffffffffffffffffffffffffffffffffffffffffffffffffffffffffffff04831182151516156101b5576101b46101ca565b5b828202905092915050565b6000819050919050565b7f4e487b7100000000000000000000000000000000000000000000000000000000600052601160045260246000fd5b610202816101c0565b811461020d57600080fd5b5056fea264697066735822122065958c2196ff8f3b3f10879eecad1a2b7adc9a803250d0d8a2d225ab4a51c31d64736f6c63430008000033",
  "immutableReferences": {},
  "source": "// SPDX-License-Identifier: GPL-3.0\npragma solidity >=0.6.0<0.9.0;\ncontract Return{\n    function Simple(uint a,uint b) public pure returns(uint _a,uint _b){\n       _a=a+b;\n       _b=a*b;\n    }\n}",
  "sourcePath": "/home/ankitkumar/Desktop/ETHEREUM/Ether/contracts/Return.sol",
  "compiler": {
    "name": "solc",
    "version": "0.8.0+commit.c7dfd78e.Emscripten.clang"
  },
  "schemaVersion": "3.4.4",
  "updatedAt": "2022-04-15T06:00:43.891Z",
  "networkType": "ethereum",
  "devdoc": {
    "kind": "dev",
    "methods": {},
    "version": 1
  },
  "userdoc": {
    "kind": "user",
    "methods": {},
    "version": 1
  }
}