{
  "contractName": "Sum",
  "abi": [
    {
      "inputs": [
        {
          "internalType": "uint256[]",
          "name": "_arr",
          "type": "uint256[]"
        }
      ],
      "name": "f",
      "outputs": [
        {
          "internalType": "uint256",
          "name": "",
          "type": "uint256"
        }
      ],
      "stateMutability": "nonpayable",
      "type": "function"
    }
  ],
  "bytecode": "0x608060405234801561001057600080fd5b506103de806100206000396000f3fe608060405234801561001057600080fd5b506004361061002b5760003560e01c80637bc5bbbf14610030575b600080fd5b61004a600480360381019061004591906101c2565b610060565b6040516100579190610212565b60405180910390f35b60008061006c8361009f565b9050600a81101561007c57600080fd5b60016000806101000a81548160ff02191690831515021790555080915050919050565b600080600090505b8251811015610111578281815181106100e9577f4e487b7100000000000000000000000000000000000000000000000000000000600052603260045260246000fd5b6020026020010151826100fc919061028a565b91508080610109906102ea565b9150506100a7565b50919050565b600061012a6101258461025e565b61022d565b9050808382526020820190508285602086028201111561014957600080fd5b60005b85811015610179578161015f88826101ad565b84526020840193506020830192505060018101905061014c565b5050509392505050565b600082601f83011261019457600080fd5b81356101a4848260208601610117565b91505092915050565b6000813590506101bc81610391565b92915050565b6000602082840312156101d457600080fd5b600082013567ffffffffffffffff8111156101ee57600080fd5b6101fa84828501610183565b91505092915050565b61020c816102e0565b82525050565b60006020820190506102276000830184610203565b92915050565b6000604051905081810181811067ffffffffffffffff8211171561025457610253610362565b5b8060405250919050565b600067ffffffffffffffff82111561027957610278610362565b5b602082029050602081019050919050565b6000610295826102e0565b91506102a0836102e0565b9250827fffffffffffffffffffffffffffffffffffffffffffffffffffffffffffffffff038211156102d5576102d4610333565b5b828201905092915050565b6000819050919050565b60006102f5826102e0565b91507fffffffffffffffffffffffffffffffffffffffffffffffffffffffffffffffff82141561032857610327610333565b5b600182019050919050565b7f4e487b7100000000000000000000000000000000000000000000000000000000600052601160045260246000fd5b7f4e487b7100000000000000000000000000000000000000000000000000000000600052604160045260246000fd5b61039a816102e0565b81146103a557600080fd5b5056fea2646970667358221220d9baf721b86d690e4219f0c179a0e312d09c7af7ca9b91b463f7cd7857365bd564736f6c63430008000033",
  "immutableReferences": {},
  "source": "// SPDX-License-Identifier: GPL-3.0\npragma solidity >=0.6.0<0.9.0;\nfunction sum(uint[] memory _arr) pure returns (uint s) {\n    for (uint i = 0; i < _arr.length; i++)\n        s += _arr[i];\n}\ncontract Sum{\n   bool found;\n    function f(uint[] memory _arr) public returns(uint){\n        // This calls the free function internally.\n        // The compiler will add its code to the contract.\n        uint s = sum(_arr);\n        require(s >= 10);\n        found = true;\n        return s;\n    }\n}",
  "sourcePath": "/home/ankitkumar/Desktop/ETHEREUM/Ether/contracts/Sum.sol",
  "compiler": {
    "name": "solc",
    "version": "0.8.0+commit.c7dfd78e.Emscripten.clang"
  },
  "schemaVersion": "3.4.4",
  "updatedAt": "2022-04-15T06:00:43.531Z",
  "networkType": "ethereum",
  "devdoc": {
    "kind": "dev",
    "methods": {},
    "version": 1
  },
  "userdoc": {
    "kind": "user",
    "methods": {},
    "version": 1
  }
}