{
  "contractName": "Transfer_Ether",
  "abi": [
    {
      "inputs": [
        {
          "internalType": "address",
          "name": "",
          "type": "address"
        }
      ],
      "name": "balances",
      "outputs": [
        {
          "internalType": "uint256",
          "name": "",
          "type": "uint256"
        }
      ],
      "stateMutability": "view",
      "type": "function",
      "constant": true
    },
    {
      "inputs": [],
      "name": "invest",
      "outputs": [],
      "stateMutability": "payable",
      "type": "function",
      "payable": true
    },
    {
      "inputs": [],
      "name": "balanceof",
      "outputs": [
        {
          "internalType": "uint256",
          "name": "",
          "type": "uint256"
        }
      ],
      "stateMutability": "view",
      "type": "function",
      "constant": true
    }
  ],
  "bytecode": "0x608060405234801561001057600080fd5b506102a6806100206000396000f3fe6080604052600436106100345760003560e01c806327e235e3146100395780632980a5d314610076578063e8b5e51f146100a1575b600080fd5b34801561004557600080fd5b50610060600480360381019061005b9190610145565b6100ab565b60405161006d919061017d565b60405180910390f35b34801561008257600080fd5b5061008b6100c3565b604051610098919061017d565b60405180910390f35b6100a96100cb565b005b60006020528060005260406000206000915090505481565b600047905090565b60023410156100d957600080fd5b346000803373ffffffffffffffffffffffffffffffffffffffff1673ffffffffffffffffffffffffffffffffffffffff16815260200190815260200160002060008282546101279190610198565b92505081905550565b60008135905061013f81610259565b92915050565b60006020828403121561015757600080fd5b600061016584828501610130565b91505092915050565b61017781610220565b82525050565b6000602082019050610192600083018461016e565b92915050565b60006101a382610220565b91506101ae83610220565b9250827fffffffffffffffffffffffffffffffffffffffffffffffffffffffffffffffff038211156101e3576101e261022a565b5b828201905092915050565b60006101f982610200565b9050919050565b600073ffffffffffffffffffffffffffffffffffffffff82169050919050565b6000819050919050565b7f4e487b7100000000000000000000000000000000000000000000000000000000600052601160045260246000fd5b610262816101ee565b811461026d57600080fd5b5056fea26469706673582212205944928bec2507c81cbe78c61e450ff13ce06b526b5c8e66a605ef84584fc72964736f6c63430008000033",
  "immutableReferences": {},
  "source": "// SPDX-License-Identifier: GPL-3.0\npragma solidity >=0.6.0<0.9.0;\ncontract Transfer_Ether{\n    mapping(address=>uint) public balances;\n    function invest() external payable{\n        if(msg.value<2){\n           revert();\n        }\n        balances[msg.sender]+=msg.value;\n    }\n    function balanceof() external view returns(uint) {\n        return address(this).balance;\n        }\n}",
  "sourcePath": "/home/ankitkumar/Desktop/ETHEREUM/Ether/contracts/Transfer_Ether.sol",
  "compiler": {
    "name": "solc",
    "version": "0.8.0+commit.c7dfd78e.Emscripten.clang"
  },
  "schemaVersion": "3.4.4",
  "updatedAt": "2022-04-15T06:00:37.086Z",
  "networkType": "ethereum",
  "devdoc": {
    "kind": "dev",
    "methods": {},
    "version": 1
  },
  "userdoc": {
    "kind": "user",
    "methods": {},
    "version": 1
  }
}