{
  "contractName": "Unchecked",
  "abi": [
    {
      "inputs": [
        {
          "internalType": "uint256",
          "name": "a",
          "type": "uint256"
        },
        {
          "internalType": "uint256",
          "name": "b",
          "type": "uint256"
        }
      ],
      "name": "f",
      "outputs": [
        {
          "internalType": "uint256",
          "name": "",
          "type": "uint256"
        }
      ],
      "stateMutability": "pure",
      "type": "function",
      "constant": true
    },
    {
      "inputs": [
        {
          "internalType": "uint256",
          "name": "a",
          "type": "uint256"
        },
        {
          "internalType": "uint256",
          "name": "b",
          "type": "uint256"
        }
      ],
      "name": "g",
      "outputs": [
        {
          "internalType": "uint256",
          "name": "",
          "type": "uint256"
        }
      ],
      "stateMutability": "pure",
      "type": "function",
      "constant": true
    }
  ],
  "bytecode": "0x608060405234801561001057600080fd5b506101f3806100206000396000f3fe608060405234801561001057600080fd5b50600436106100365760003560e01c806313d1aa2e1461003b5780631cd65ae41461006b575b600080fd5b610055600480360381019061005091906100d3565b61009b565b604051610062919061011e565b60405180910390f35b610085600480360381019061008091906100d3565b6100a8565b604051610092919061011e565b60405180910390f35b6000818303905092915050565b600081836100b69190610139565b905092915050565b6000813590506100cd816101a6565b92915050565b600080604083850312156100e657600080fd5b60006100f4858286016100be565b9250506020610105858286016100be565b9150509250929050565b6101188161016d565b82525050565b6000602082019050610133600083018461010f565b92915050565b60006101448261016d565b915061014f8361016d565b92508282101561016257610161610177565b5b828203905092915050565b6000819050919050565b7f4e487b7100000000000000000000000000000000000000000000000000000000600052601160045260246000fd5b6101af8161016d565b81146101ba57600080fd5b5056fea264697066735822122050fd58f85e75b9cacd20d92d94a34e19dfc01160e37ab9b5006beaaecdafff8164736f6c63430008000033",
  "immutableReferences": {},
  "source": "// SPDX-License-Identifier: GPL-3.0\npragma solidity >=0.6.0<0.9.0;\ncontract Unchecked {\n    function f(uint a,uint b) public pure returns(uint){\n        unchecked {\n            return a-b;\n        }\n    }\n    function g(uint a,uint b) public pure returns(uint){\n        return a-b;\n    }\n}",
  "sourcePath": "/home/ankitkumar/Desktop/ETHEREUM/Ether/contracts/Unchecked.sol",
  "compiler": {
    "name": "solc",
    "version": "0.8.0+commit.c7dfd78e.Emscripten.clang"
  },
  "schemaVersion": "3.4.4",
  "updatedAt": "2022-04-15T06:00:41.202Z",
  "networkType": "ethereum",
  "devdoc": {
    "kind": "dev",
    "methods": {},
    "version": 1
  },
  "userdoc": {
    "kind": "user",
    "methods": {},
    "version": 1
  }
}