{
  "contractName": "Visiblity_C",
  "abi": [
    {
      "inputs": [
        {
          "internalType": "uint256",
          "name": "a",
          "type": "uint256"
        },
        {
          "internalType": "uint256",
          "name": "b",
          "type": "uint256"
        }
      ],
      "name": "computation",
      "outputs": [
        {
          "internalType": "uint256",
          "name": "",
          "type": "uint256"
        }
      ],
      "stateMutability": "pure",
      "type": "function",
      "constant": true
    },
    {
      "inputs": [],
      "name": "data",
      "outputs": [
        {
          "internalType": "uint256",
          "name": "",
          "type": "uint256"
        }
      ],
      "stateMutability": "view",
      "type": "function",
      "constant": true
    },
    {
      "inputs": [],
      "name": "getData",
      "outputs": [
        {
          "internalType": "uint256",
          "name": "",
          "type": "uint256"
        }
      ],
      "stateMutability": "view",
      "type": "function",
      "constant": true
    },
    {
      "inputs": [
        {
          "internalType": "uint256",
          "name": "a",
          "type": "uint256"
        }
      ],
      "name": "setData",
      "outputs": [],
      "stateMutability": "nonpayable",
      "type": "function"
    },
    {
      "inputs": [],
      "name": "val",
      "outputs": [
        {
          "internalType": "uint256",
          "name": "",
          "type": "uint256"
        }
      ],
      "stateMutability": "view",
      "type": "function",
      "constant": true
    },
    {
      "inputs": [],
      "name": "f",
      "outputs": [],
      "stateMutability": "nonpayable",
      "type": "function"
    }
  ],
  "bytecode": "0x608060405234801561001057600080fd5b506102e0806100206000396000f3fe608060405234801561001057600080fd5b50600436106100625760003560e01c806326121ff0146100675780633bc5de30146100715780633c6bb4361461008f5780635b4b73a9146100ad5780636aed9410146100c957806373d4a13a146100f9575b600080fd5b61006f610117565b005b61007961012b565b60405161008691906101e9565b60405180910390f35b610097610134565b6040516100a491906101e9565b60405180910390f35b6100c760048036038101906100c29190610175565b61013a565b005b6100e360048036038101906100de919061019e565b610144565b6040516100f091906101e9565b60405180910390f35b61010161015a565b60405161010e91906101e9565b60405180910390f35b61012360036005610144565b600181905550565b60008054905090565b60015481565b8060008190555050565b600081836101529190610204565b905092915050565b60005481565b60008135905061016f81610293565b92915050565b60006020828403121561018757600080fd5b600061019584828501610160565b91505092915050565b600080604083850312156101b157600080fd5b60006101bf85828601610160565b92505060206101d085828601610160565b9150509250929050565b6101e38161025a565b82525050565b60006020820190506101fe60008301846101da565b92915050565b600061020f8261025a565b915061021a8361025a565b9250827fffffffffffffffffffffffffffffffffffffffffffffffffffffffffffffffff0382111561024f5761024e610264565b5b828201905092915050565b6000819050919050565b7f4e487b7100000000000000000000000000000000000000000000000000000000600052601160045260246000fd5b61029c8161025a565b81146102a757600080fd5b5056fea26469706673582212202e3ca6efb2c9fce93270a3ecaf9d8d8e703d994f397dca00df1a3bb35f4016ed64736f6c63430008000033",
  "immutableReferences": {},
  "source": "// SPDX-License-Identifier: GPL-3.0\npragma solidity >=0.6.0<0.9.0;\ncontract Visiblity{\n    uint public data;\n    function f(uint a) private pure returns(uint b) {\n        return a+1;\n    }\n    function setData(uint a) public{\n        data=a;\n    }\n    function getData() public view returns(uint){\n        return data;\n    }\n    function computation(uint a,uint b) public pure returns(uint ){\n        return a+b;\n    }\n}\n\ncontract Visiblity_C is Visiblity{\n    uint public val;\n    function f() public {\n       // Visiblity v=new Visiblity();\n        val=computation(3, 5);\n    }\n}",
  "sourcePath": "/home/ankitkumar/Desktop/ETHEREUM/Ether/contracts/Visiblity.sol",
  "compiler": {
    "name": "solc",
    "version": "0.8.0+commit.c7dfd78e.Emscripten.clang"
  },
  "schemaVersion": "3.4.4",
  "updatedAt": "2022-04-15T06:00:41.837Z",
  "networkType": "ethereum",
  "devdoc": {
    "kind": "dev",
    "methods": {},
    "version": 1
  },
  "userdoc": {
    "kind": "user",
    "methods": {},
    "version": 1
  }
}